:020000040800F2
:10000000280400209D0100088503000881030008E2
:100010008303000811020008010800080000000026
:10002000000000000000000000000000E5040008DF
:100030003B0200080000000005040008A1050008BC
:10004000B7010008B7010008B7010008B7010008B0
:10005000B7010008B7010008B7010008B7010008A0
:10006000B7010008B7010008B7010008B701000890
:10007000B7010008B7010008B7010008B701000880
:10008000B7010008B7010008B7010008B701000870
:10009000B7010008B7010008B7010008B701000860
:1000A000B7010008B7010008B7010008B701000850
:1000B000B7010008B7010008B7010008B701000840
:1000C000B7010008B7010008B7010008B701000830
:1000D000B701000841060008B70100086D060008D6
:1000E000B7010008B7010008B7010008B701000810
:1000F000B7010008B7010008B7010008B701000800
:10010000B7010008B7010008B7010008B7010008EF
:10011000B7010008B7010008B7010008B7010008DF
:10012000B7010008B7010008B7010008B7010008CF
:10013000B7010008B7010008B7010008B7010008BF
:10014000B7010008B7010008B7010008B7010008AF
:10015000B7010008B7010008B7010008B70100089F
:10016000B7010008B7010008B7010008B70100088F
:10017000B7010008B7010008B7010008B70100087F
:10018000B7010008B7010008DFF80CD000F02EF826
:1001900000480047210A000828040020064880473C
:1001A00006480047FEE7FEE7FEE7FEE7FEE7FEE75C
:1001B000FEE7FEE7FEE7FEE7E50500088901000827
:1001C00030B50B46014600202022012409E021FA27
:1001D00002F59D4205D303FA02F5491B04FA02F524
:1001E0002844151EA2F10102F1DC30BD064C074D7A
:1001F00006E0E06840F0010394E8070098471034F7
:10020000AC42F6D3FFF7C4FF500A0008700A00089A
:10021000FEE708B54FF4A06000F0EAF825208DF85D
:10022000000000208DF8010001208DF802008DF8FB
:100230000300684600F0A8F808BD704770B586B0A6
:100240000121084600F0E0F80121102000F0EAF852
:1002500000248DF8164001208DF8170002258DF836
:1002600015508DF81450400204901C4E04A93046DD
:1002700000F038F88DF814506902049104A9304652
:1002800000F030F807220A21304600F069F8072212
:100290000921304600F064F84FF4E1300090ADF8E9
:1002A0000440ADF80640ADF80840ADF80C400C2015
:1002B000ADF80A000A4C6946204600F03BFAFFF709
:1002C000A8FF012240F22551204600F018FA012132
:1002D000204600F0E1F906B070BD000000000240C9
:1002E000001001402DE9F041002201274FF0030CDE
:1002F00007FA02F50B682B40AB422CD1066853007D
:100300000CFA03F4A64306600E79D0F800809E40F4
:1003100046EA080606600E79012E01D0022E12D19F
:100320008668A64386604E79D0F808809E4046EAEB
:10033000080686604668AE43466045688E799640FA
:10034000B6B235434560C568A543C560CC799C40CD
:10035000C3681C43C460521C102AC9D3BDE8F08195
:1003600010B54B07DB0E9A40C90800EB8100016A0B
:100370000F249C40A1430162016A1143016210BD38
:10038000FEE7FEE77047000030B50F23C278012575
:100390000178002A1FD0154A126802F4E062C2F503
:1003A000E062C2F30722C2F10404D3404278A240C3
:1003B00084781C401443220101F1E02181F80024DB
:1003C000007800F01F018D404009800000F1E0201E
:1003D000C0F8005130BD01F01F0085404809800081
:1003E00000F1E020C0F8805130BD00000CED00E0CD
:1003F0000249084302490860704700000000FA05FE
:100400000CED00E070470000054A002903D0116898
:10041000014311607047116881431160704700000B
:1004200030380240054A002903D0116801431160A9
:1004300070471168814311607047000044380240E2
:1004400070B5244B196801F00C01234C00291ED013
:10045000224E04291DD008291DD00460196801F01E
:10046000F00109091E4A545C0168E14041601C68C2
:1004700004F4E054A40A145D21FA04F484601B68B7
:1004800003F460435B0BD25CD140C16070BD04607B
:10049000E4E70660E2E70F4A121F1168C1F38055D6
:1004A000116801F03F0135B1B6FBF1F11468C4F3F6
:1004B0008814614305E0B4FBF1F11468C4F38814B7
:1004C00061431268C2F30142521C5200B1FBF2F1C7
:1004D0000160C3E7083802400024F40040787D0141
:1004E00014000020704700000CB500220192009219
:1004F0002749086840F4803008604FF4A04308683A
:1005000000F4003000900198401C0190009810B950
:1005100001989842F3D10868800302D50120009029
:1005200000E000920098012831D11948403002685B
:1005300042F0805202601748026842F44042026072
:100540001348083002680260026842F40042026008
:10055000026842F4A0520260021F0F4B13600A6847
:1005600042F080720A600A689201FCD50B4A40F2A0
:1005700005711160016821F003010160016841F01B
:10058000020101600168C1F381010229FAD10CBDA9
:10059000003802400070004019544007003C0240FF
:1005A000704700000C480D490068B0FBF1F0401E98
:1005B000B0F1807F01D301200AE04FF0E0214861D3
:1005C000074AF02010700020886107200861002091
:1005D000002800D0FEE7704700000020A086010040
:1005E00023ED00E010B51248016841F4700101608C
:1005F0001048016841F0010101600E4A00210832F3
:10060000116002680C4B1A400260031D0B4A1A600D
:10061000026822F48022026006480C300160FFF775
:1006200063FF03494FF000608039086010BD00008F
:1006300088ED00E000380240FFFFF6FE1030002495
:1006400010B5094C40F22551204600F038F800283A
:1006500008D0204600F0CCF8C1B22046BDE81040DA
:1006600000F0CAB810BD00000010014010B5094CE0
:1006700040F22551204600F022F8002808D02046FC
:1006800000F0B6F8C1B22046BDE8104000F0B4B8A2
:1006900010BD000000480040002904D0818941F4C9
:1006A000005181817047818921F400518181704717
:1006B0000246002012880A4200D00120704770B51F
:1006C000002440F66A12C1F3421301F01F0501260F
:1006D00006FA05F2012B0CD0022B0DD0838A1340B1
:1006E000090A8E40008830400BB100B10124204639
:1006F00070BD83891340F3E7038A1340F0E710B518
:1007000040F66A13C1F3421301F01F040121A14016
:10071000012B07D0022B07D014303AB102680A43EC
:10072000026010BD0C30F8E71030F6E702688A432B
:10073000026010BD7FB504460D46208A20F440516A
:10074000E88808432082A08941F20C618843A98887
:100750002A8911436A8902431143A181A08A20F4A6
:100760004071A8890843A0826846FFF769FE1E48C9
:10077000844202D01D48844201D1039800E00298CF
:10078000A189090408D500EBC00101EB001029681C
:100790004900B0FBF1F007E000EBC00101EB0010F5
:1007A00029688900B0FBF1F06422B0FBF2F1090185
:1007B0000B096FF018056B4300EB8300A3891D0440
:1007C0004FF0320307D503EBC000B0FBF2F000F0AE
:1007D0000700084306E003EB0010B0FBF2F000F066
:1007E0000F00084320817FBD00100140001401402C
:1007F0008088C0F308007047C1F30801818070470A
:10080000FEE700000FB4054B10B503A9044A029897
:1008100000F018F810BC5DF814FB0000FD0900089A
:100820002400002002E008C8121F08C1002AFAD1E3
:1008300070477047002001E001C1121F002AFBD160
:10084000704700002DE9FF4F8BB09A460F460546D2
:10085000002606E025280BD052460D9990476D1CC6
:10086000761C28780028F5D10FB03046BDE8F08F0F
:100870000024A0460122604900E0044315F8013F2E
:10088000203B02FA03F00842F7D128782E2817D12E
:1008900015F8010F44F004042A280ED06FF02F023F
:1008A0002878A0F1300109290AD808EB880102EB69
:1008B000410100EB01086D1CF2E757F8048B6D1C39
:1008C000287869283ED006DC0028CDD063280BD0DC
:1008D000642804D136E0732810D075284BD05246D6
:1008E0000D999047761C85E017F8040B8DF80000F1
:1008F00000208DF80100E946012003E057F8049B31
:100900004FF0FF3061074FF0000401D40AE0641C8F
:1009100044450DDA8442FADB19F804100029F6D1B7
:1009200006E0641C8442FCDB19F804100029F8D1AD
:10093000264404E019F8010B52460D999047641EB5
:10094000F8D257E001CF4FF00A0B002802DA4042FC
:100950002D2102E0210504D52B218DF82410012141
:1009600003E0E10705D02021F7E70DF12009089108
:100970000CE00021F9E701CF4FF00A0BF9E75946E7
:10098000FFF71EFC01F1300209F8012D0028F6D115
:10099000ADEB090000F1200B600701D44FF0010816
:1009A000D84502DDA8EB0B0000E0002080460024C3
:1009B00006E009A85246005D0D999047641C761C1C
:1009C00008988442F5DB04E0302052460D999047A8
:1009D000761CB8F10001A8F10108F5DC05E019F872
:1009E000010B52460D999047761CBBF10001ABF10B
:1009F000010BF4DC6D1C34E70928010070B50446D6
:100A0000064DE1B22846FFF7F7FE80212846FFF7A2
:100A10004FFE0028F9D0204670BD000000100140B4
:100A2000FFF70CFCFFF7BEFD01A0FFF7EBFEFEE7B2
:100A3000D5E2CAC7D2BBB8F6B4AEBFDAD6D0B6CF0D
:100A4000BDD3CAD5BBD8CFD4CAB5D1E90A000000FE
:100A5000700A000800000020280000002408000898
:100A6000980A00082800002000040000340800084C
:100A7000007A030A000000000000000001020304E5
:100A80000607080900000000010203040102030434
:080A9000060708090000000040
:040000050800018965
:00000001FF
