:020000040800F2
:1000000068240020891C00086D0700086F0700089D
:1000100073070008770700087B070008000000004E
:100020000000000000000000000000007F07000842
:10003000810700080000000083070008850700080A
:10004000A31C0008A31C0008A31C0008A31C000894
:10005000A31C0008A31C0008A31C0008A31C000884
:10006000A31C0008A31C0008A31C0008A31C000874
:10007000A31C0008A31C0008A31C0008A31C000864
:10008000A31C0008A31C0008A31C0008A31C000854
:10009000A31C0008A31C0008A31C0008A31C000844
:1000A000A31C0008A31C0008A31C0008A31C000834
:1000B000A31C0008A31C0008EF070008A31C0008ED
:1000C000A31C0008A31C0008A31C0008A31C000814
:1000D000A31C000853390008A31C00088707000868
:1000E000A31C0008A31C0008A31C0008A31C0008F4
:1000F000A31C0008A31C0008A31C0008A31C0008E4
:10010000A31C0008A31C0008A31C0008A31C0008D3
:10011000A31C0008A31C0008A31C0008A31C0008C3
:10012000A31C0008A31C0008A31C0008A31C0008B3
:10013000A31C0008A31C0008A31C0008A31C0008A3
:10014000A31C0008A31C0008A31C0008A31C000893
:10015000A31C0008A31C0008A31C0008A31C000883
:10016000A31C0008A31C0008A31C0008A31C000873
:10017000A31C0008A31C0008A31C0008A31C000863
:10018000A31C0008A31C000800F002F800F092F87D
:100190000AA090E8000C82448344AAF10107DA45E2
:1001A00001D100F087F8AFF2090EBAE80F0013F0A2
:1001B000010F18BFFB1A43F001031847C456000093
:1001C000E4560000103A24BF78C878C1FAD8520724
:1001D00024BF30C830C144BF04680C6070470000C1
:1001E0000023002400250026103A28BF78C1FBD840
:1001F000520728BF30C148BF0B6070476E2903F01B
:100200005387702903F0C584662905F0A682652905
:1002100005F0A382672905F0A0826129AFF3008071
:1002200003681B0A28BF41F08001692903F0368466
:10023000642903F03384752903F030846F2904F0B6
:100240004A80782903F09184E92903F0E587E429BD
:1002500003F0E287F52903F0DF87EF2904F04780F8
:10026000F82903F090840368DB0928BF41F080017E
:10027000632903F05487732903F05987E32904F0B5
:100280003783F32904F03C83002070471FB505F045
:100290005FFA04F045FD04000020002105F042FA59
:1002A000401C60600020002105F026FAE0601FBDC0
:1002B00010B510BD04F006FD1146FFF7E7FF00F092
:1002C00009F804F0E3FD03B4FFF7F2FF03BC03F009
:1002D000E1FA00004FF4E13003F0E9FA4FF4E130C5
:1002E00001F089FB4FF4E1514FF4967001F020FCCE
:1002F000542003F04DFA00F098FD32E1994800785F
:10030000012872D1984800689849096888422AD023
:1003100095480068807810280CD093480068807851
:10032000822803D192480078012803D091480078B0
:10033000012818D18C48006881788FA003F062FBF7
:100340008948006801F0D0FB8748006800F5967086
:1003500085490860084600688B490968884202D1CF
:100360008A48814908608A4800688A490968884241
:10037000C3D089A003F046FB854800688078202818
:100380003CD183480068407906282FD2DFE800F08E
:10039000030A11181F2683A003F034FB01207449BF
:1003A00008702AE084A003F02DFB00206D4908703E
:1003B00023E08CA003F026FB00206A4908701CE0B3
:1003C00094A003F01FFB00206649087015E09BA075
:1003D00003F018FB0020634908700EE0A2A003F0B0
:1003E00011FB00205F49087007E094E0A6A003F02D
:1003F00009FB00205B49087000BF7CE0644800688E
:100400008078902820D162480068807910B1012856
:1004100012D100E000BFA5A003F0F4FA0120554975
:1004200008700020A449087001F0BAFB0422A3A1BF
:10043000A4A000F050FD06E0A5A003F0E3FA002020
:100440004849087000BF56E0514800688078D028BD
:1004500014D1A5A003F0D6FA97480078012803D15B
:1004600000209549087046E093480078012842DD55
:1004700000209149087001F093FB3CE0444800687B
:100480008078302807D19CA003F0BCFA404800686F
:1004900000F05AFE2FE03E48006840780A2811D14B
:1004A0003B48006880780D280CD100203849096845
:1004B000087396A1974803F0C9FCE0B100202949D0
:1004C000087018E03248006840780F2813D130488F
:1004D000006840780D280ED100202D490968487425
:1004E0008DA003F08FFA8FA18A4803F0AFFC10B102
:1004F00000201C4908702648006800F596702449C1
:100500000860084600688A490968884229D18948F4
:100510001F49086025E088A003F074FA00218B4889
:1005200002F0F0F900218A4802F0ECF90020894934
:1005300008604FF48061774803F0FEFC00F0D9FFBB
:1005400078B985A003F05EFA012006490870002002
:10055000804908604FF480616E4803F0EDFC00F0C4
:1005600037FCCBE6550000202400002020000020AE
:100570005600002057000020B7A2CBCDCAFDBEDD3B
:100580003A307825780D0A0028000020580600200F
:100590001800002014000020BDD3CAD5B5BDCAFD87
:1005A000BEDD3A00434F4E4E454354B1A8CEC4B3CE
:1005B000C9B9A60D0A000000C1ACBDD3D2D1BEDCC2
:1005C000BEF8A3ACB2BBD6A7B3D6B5C4D0ADD2E902
:1005D000B0E6B1BEA3ACD7BCB1B8D6D8C6F40D0A4C
:1005E00000000000C1ACBDD3D2D1BEDCBEF8A3ACCC
:1005F000B2BBBACFB8F1B5C4BFCDBBA7B6CBB1EAD9
:10060000CAB6B7FBA3ACD7BCB1B8D6D8C6F40D0AEE
:1006100000000000C1ACBDD3D2D1BEDCBEF8A3AC9B
:10062000B7FECEF1B6CBB2BBBFC9D3C3A3ACD7BC68
:10063000B1B8D6D8C6F40D0A00000000C1ACBDD3D5
:10064000D2D1BEDCBEF8A3ACCEDED0A7B5C4D3C336
:10065000BBA7C3FBBBF2C3DCC2EBA3ACD7BCB1B836
:10066000D6D8C6F40D0A0000C1ACBDD3D2D1BEDCD1
:10067000BEF8A3ACCEB4CADAC8A8A3ACD7BCB1B894
:10068000D6D8C6F40D0A0000C1ACBDD3D2D1BEDCB1
:10069000BEF8A3ACCEB4D6AAD7B4CCACA3ACD7BC6E
:1006A000B1B8D6D8C6F40D0A00000000B6A9D4C46B
:1006B000B3C9B9A60D0A000054000020313233340A
:1006C000000000006B66625F746F70696300000079
:1006D000B6A9D4C4CAA7B0DCA3ACD7BCB1B8D6D82D
:1006E000C6F40D0A0000000050494E47B1A8CEC420
:1006F000BBD8B8B40D0A0000B7FECEF1C6F7B5C836
:10070000BCB630CDC6CBCD0D0A000000434C4F53D4
:10071000454400004015002047505253B6CFBFAAB1
:100720000D0A00002B5044503A20444541435400E8
:100730001C0000207C000020D0E8D2AAC1ACBDD3B0
:10074000B7FECEF1C6F70D0A000000000008004019
:10075000001000405C000020BDA8C1A2544350C15D
:10076000ACBDD3B3C9B9A60D0A000000704700BFE5
:10077000FEE700BFFEE700BFFEE700BFFEE77047F1
:1007800070477047704710B540F225514E4802F04F
:10079000B5FF58B34D48007880B94B48001D00881C
:1007A00020B34948001D008849494A4A12688854C4
:1007B00048480068401C4749086017E04248001D4F
:1007C00000884349434A126888544248006820B967
:1007D0000121414802F096F803E000213E4802F072
:1007E00051F83C480068401C3A49086010BD10B5FB
:1007F0000121394802F0B5FC002834D0354834498D
:10080000026836480068801C03F051FB31480088BC
:10081000000A3249096808702E4800782F49096893
:1008200048702E48006800F596702C49086008460C
:1008300000682B490968884202D12A482749086084
:100840000020244908600021274802F01BF80021FD
:10085000214802F057F800211F4802F013F8012147
:100860001D4802F08FFC10BD10B501211F4802F099
:1008700078FC38B31E480078062819D2DFE800F06B
:1008800003060B0C0D1000F01BFB11E001F0C0F98A
:1008900000F016FB0CE000BF00BF00F011FB07E00A
:1008A00000200A4908700021104802F02BF800BF10
:1008B00000BF0F480078401C0D49087001210B480B
:1008C00002F060FC10BD0000004800405500002010
:1008D000401500205C0000200008004014000020AB
:1008E0001C0000207C00002000040040001000409C
:1008F000540000200CB5002001900090764800685C
:1009000040F480307449086000BF7348006800F408
:10091000003000900198401C0190009818B901988F
:10092000B0F5A04FF1D16C48006800F4003010B170
:100930000120009001E0002000900098012846D19D
:1009400065484030006840F080506349403108609D
:100950006248006840F44040604908605E480830E2
:1009600000685D49083108600846006840F40040AE
:1009700008600846006840F4A05008605848091F05
:100980000860081F006840F08070091F086000BF01
:100990005148006800F000700028F9D040F205705E
:1009A000504908604C480830006820F003004A496C
:1009B000083108600846006840F00200086000BF87
:1009C00045480830006800F00C000828F8D10CBD3C
:1009D00010B54548006840F47000434908603E483F
:1009E000006840F001003C49086000203A490831A5
:1009F0000860394800683D490840374908603C486C
:100A0000091D0860081F006820F48020091F086085
:100A1000002031490C310860FFF76CFF4FF0006097
:100A200031498039086010BD70B5002000220223D2
:100A300000240221284D08352D6805F00C0020B156
:100A4000042806D0082834D107E02A4D2A4E356004
:100A500033E02A4D284E35602FE01F4D2D1D2D68A7
:100A6000C5F380541C4D2D1D2D6805F03F0154B178
:100A7000224DB5FBF1F5184E361D3668C6F38816C3
:100A800005FB06F209E01B4DB5FBF1F5124E361DD4
:100A90003668C6F3881605FB06F20F4D2D1D2D682E
:100AA000C5F301456D1C6B00B2FBF3F5124E3560CA
:100AB00003E0104D104E356000BF00BF064D0835F5
:100AC0002D68C5F303150E4E705D0B4D2D68C540A6
:100AD000094E356070BD00000038024000700040D3
:100AE00008544007003C024088ED00E0FFFFF6FE9E
:100AF000103000240024F4000000002000127A00CE
:100B00000400002070B505460C4622462946FE48E2
:100B10000068801C03F0CBF92046E11704EB11615B
:100B2000090AF94A12681170E11704EB1161091200
:100B3000A4EB0121F44A12685170F348006800F5F3
:100B40009670F149086008460068F04909688842D3
:100B500002D1EF48EC49086070BD70B504460D46FF
:100B60000220EC490860EC490860204603F080F957
:100B7000C01CEA4908608220E9490870E64800780C
:100B8000E64909780844E649487000208870012049
:100B9000C870204603F06CF9000AE149087120464C
:100BA00003F066F9DE494871204603F061F9064614
:100BB00032462146DA48801D03F079F9204603F0D9
:100BC00057F9801DD6490D54D2480068D24A1268A0
:100BD0001044D24A12688118D148FFF793FF70BDC4
:100BE00070B50120CB4908600A20CB490860CD4888
:100BF0000068001DCC4909680844801CCB4909687D
:100C00000844C6490860C4480068096844181020B0
:100C1000C349087000BF2046E11704EB5161C911B8
:100C2000A4EBC115E11704EB5161CC11002C01DDDF
:100C300045F08005BA48B74A12688554B54800683F
:100C4000401CB4490860002CE5DC0021B44AB148DE
:100C5000006811540421AF480068401C11544D2114
:100C6000AC480068801C11545121AA480068C01C7F
:100C700011545421A7480068001D1154A54800686C
:100C8000401D11540421A3480068801D1154C22145
:100C9000A0480068C01D115400219E48006808301B
:100CA000115464219B480068093011549D4908681B
:100CB000C11700EB1161C1F30722994B95490968EF
:100CC0000A315A5497490868C11700EB116109129B
:100CD000A0EB0121CAB28F4909680B315A541A4658
:100CE0008C4909680C3150188E490A68904903F004
:100CF000DEF88D490868C11700EB1161C1F30722C6
:100D0000844909680C31874B1B681944844B5A5439
:100D100085490868C11700EB11610912A0EB012198
:100D2000CAB27C4909680D317E4B1B6819447C4B63
:100D30005A54784909680E317A4A126811441A46A1
:100D4000881879490A687B4903F0B1F8774908683F
:100D5000C11700EB1161C1F307226E4909680E311A
:100D6000704B1B681944704B1B6819446C4B5A54E8
:100D70006E490868C11700EB11610912A0EB01214F
:100D8000CAB2644909680F31664B1B681944664B47
:100D90001B681944624B5A545E4909681031614A14
:100DA00012681144604A126811441A4688185F4953
:100DB0000A68614903F07BF856480068564A126891
:100DC0001044564A126881185548FFF79BFE70BDC3
:100DD00010B55A485A4908600846006859490860E1
:100DE00059485A4908604A48474908600846006817
:100DF00057490860574845490860574857490860AF
:100E00000846006856490860564857490860FFF789
:100E1000E7FE002155A0FFF7A0FE0020564908700C
:100E2000564908705649087010BD10B580214048D9
:100E300003F082F853A257A13D4802F0EFFD3C4871
:100E400003F016F83749086080213A4803F074F837
:100E500051A250A1374802F0E1FD364803F008F8EE
:100E6000314908608021344803F066F8554A49A1A9
:100E7000314802F0D3FD304802F0FAFF2B490860F8
:100E80008021514803F058F850A242A14E4802F088
:100E9000C5FD40F25B705749086008464A49026840
:100EA00055A002F0AFFD224958A002F0ABFD214948
:100EB0005AA002F0A7FD20495CA002F0A3FD10BDDE
:100EC00010B5C0201649087000204870022114484F
:100ED000FFF718FE10BD2DE9F04705468846164677
:100EE00001200C490860284602F0C2FF801C0A4914
:100EF00008600A48066008460068084909684418FE
:100F000030200749087099E02000002028000020C8
:100F100058060020480000204C000020500000200F
:100F200010140020380000203C0000204000002069
:100F30001012002090120020101300207C000020CE
:100F400014000020180000202C0500201C000020A8
:100F500024000020080B0020340C00202C0000206E
:100F600030000020E4100020340000206170705F29
:100F7000746F706963000000570000205600002065
:100F8000540000203345373652465A4D39324465B5
:100F90006D6F0000257300003345373652465A4DB9
:100FA000393244656D6F3B31323031303132363B4E
:100FB00037666338653B313636353037323030305E
:100FC00000000000345800089013002033453736E5
:100FD00052465A4D39322E696F74636C6F75642EA8
:100FE00074656E63656E74646576696365732E639C
:100FF0006F6D000044000020B7FE20CEF120C6F740
:10100000A3BA25733A25640D0A000000BFCDBBA723
:10101000B6CB4944A3BA25730D0A0000D3C320BB45
:10102000A720C3FBA3BA25730D0A0000C3DC202050
:101030002020C2EBA3BA25730D0A000000BF204692
:10104000E11704EB5161C911A4EBC117E11704EBDF
:101050005161CC11002C01DD47F080077548764ABC
:101060001268875474480068401C73490860002C5B
:10107000E5DC284602F0FCFEC0F307216D4A6E480D
:1010800000681154284602F0F3FEC1B2694A6A486A
:101090000068401C1154284602F0EAFE8146654A69
:1010A00065490968891C50184A46294602F0FFFE26
:1010B000284602F0DDFE60490968891C08445D4944
:1010C00000EB010932464146484602F0F0FE5A481C
:1010D00000685A4A12681044594A126881185548E3
:1010E000FFF710FDBDE8F08770B505460C462246B7
:1010F000294654480068801C02F0D9FE2046E117BA
:1011000004EB1161090A4F4A12681170E11704EBF0
:1011100011610912A4EB01214A4A126851700021A1
:1011200048480268A01C11544648006800F59670B3
:10113000444908600846006843490968884202D16A
:1011400042484049086070BD2DE9F04FD1B080465B
:1011500098F8011098F8000001EB0020509008F179
:1011600002070020814605460646834601244FF0CB
:10117000010A00BF0BF1010B00BF281917F80090FE
:1011800009F07F0000FB0A664FEACA1A641C09F0E6
:1011900080000028F1D13019054431195098401AC7
:1011A00050900124A246002650980028E2D15946CA
:1011B00027A002F027FC00200546064600BF00BF1E
:1011C0004C9030E000BF281917F8009009F07F001C
:1011D00000FB0A664FEACA1A641C09F08000002866
:1011E000F1D1601C2844395C6019385C01EB0020A7
:1011F000801C4F904F98301A4E9029194F980844F0
:101200004D904D98391801A84E9A02F050FE01A851
:101210004E99FFF769FF301905440124A2460026C4
:101220004C98401C4C904C985845CBDB51B0BDE8D5
:10123000F08F000010140020480000204C00002017
:10124000500000202C00002034000020340C00202E
:10125000B1BEB4CEBDD3CAD5C1CB2564B8F6CDC618
:10126000CBCDCAFDBEDD0D0A0000000070B50546FD
:101270000C460020DD4908604FF48061DC4802F034
:101280005BFE2946DBA000F005FC0CE0642002F0C8
:10129000E1FADAA1D64802F0D9FD00B107E0214613
:1012A000D7A002F0AFFB201EA4F10104EED100BFD5
:1012B000D4A002F0A7FB002C01DC012070BD0020AF
:1012C000FCE710B5044618E00020C84908604FF458
:1012D0008061C74802F030FECBA000F0DBFB4FF48A
:1012E0007A7002F0B7FACBA1C14802F0AFFD00B1AD
:1012F00007E02146C2A002F085FB201EA4F10104F4
:10130000E2D100BFBFA002F07DFB002C01DC012078
:1013100010BD0020FCE710B58AB004460020B34998
:1013200008604FF48061B24802F006FEBCA000F0F5
:10133000B1FB1BE0642002F08DFABCA1AC4802F0C6
:1013400085FD78B101A804AB07AABAA10090A8480E
:1013500002F0EEFCBCA002F055FB04A9C2A002F012
:1013600051FB07E02146A6A002F04CFB201EA4F191
:101370000104DFD100BFA3A002F044FB002C02DC7B
:1013800001200AB010BD0020FBE710B5044618E0AC
:101390000020964908604FF48061954802F0CCFD2A
:1013A000B5A000F077FB4FF47A7002F053FAB5A1C4
:1013B0008F4802F04BFD00B107E0214690A002F0FB
:1013C00021FB201EA4F10104E2D100BF8DA002F098
:1013D00019FB002C01DC012010BD0020FCE710B53A
:1013E000ABA002F00FFB3C21AFA0FFF73FFF20B105
:1013F000B5A002F007FB012010BDB7A002F002FB70
:10140000B9A002F0FFFA3C21BDA0FFF72FFF20B1E9
:10141000C2A002F0F7FA0220EEE7C5A002F0F2FA4D
:10142000C8A002F0EFFA3C21CDA0FFF71FFF20B1CA
:10143000CFA002F0E7FA0320DEE7D2A002F0E2FA42
:101440000020D9E710B504460020684908604FF431
:101450008061674802F070FDCF48D0490268D0A093
:1014600000F018FB0DE04FF47A7002F0F3F9D4A10C
:101470005F4802F0EBFC00B107E0214660A002F0FB
:10148000C1FA201EA4F10104EDD100BF5DA002F05D
:10149000B9FA002C01DC012010BD0020FCE710B5DA
:1014A00004460020514908604FF48061504802F022
:1014B00043FDC5A000F0EEFA0DE04FF47A7002F0A3
:1014C000C9F9C5A14A4802F0C1FC00B107E02146B4
:1014D0004BA002F097FA201EA4F10104EDD100BF49
:1014E00048A002F08FFA002C01DC012010BD002082
:1014F000FCE710B5BBA002F085FA1E20FFF7E1FE65
:1015000020B1BFA002F07EFA022010BDC3A002F0FD
:1015100079FA3C20FFF7FFFE20B1C4A002F072FA76
:101520000320F2E7C9A002F06DFA1E20FFF72DFF9D
:1015300020B1CDA002F066FA0420E6E7D2A002F0C6
:1015400061FAD5A002F05EFA3C21DAA0FFF78EFE28
:1015500020B1DBA002F056FA0520D6E7DFA002F0AA
:1015600051FAE4A002F04EFA3C21E8A0FFF77EFE1B
:1015700020B1EAA002F046FA0620C6E7EEA002F08B
:1015800041FAFFF72CFF20B1EFA002F03BFA072051
:10159000BBE74FF4FA7002F05DF900241EE0F1A001
:1015A00002F030FA0A20FFF74DFF98B1F4A002F0E4
:1015B00029FA4FF4FA7002F04DF90A20FFF76FFF95
:1015C00050B1F6A002F01EFA4FF4FA7002F042F9A0
:1015D00008209AE7002098E7601CC4B2032CDEDBE9
:1015E000F4A002F00FFA09208FE700005C00002051
:1015F0004015002025730D0A000000004F4B00002D
:10160000256420000D0A000041542B435245473FFA
:101610000D0A00002B435245473A20302C31000080
:1016200041542B4353510D0A000000002B435351EA
:101630003A000000255B5E205D20255B5E2C5D2C62
:10164000255B5E2C5D000000D0C5BAC5C7BFB6C81B
:10165000B7B6CEA7307E33312C3939B1EDCABECE04
:10166000DED0C5BAC50D0A00D0C5BAC5C7BFB6C859
:10167000A3BA25730D0A000041542B43474154542B
:101680003F0D0A002B43474154543A2031000000DB
:10169000B5C8B4FDBCA4BBEE475052532E2E2E202D
:1016A0002E2E2E0D0A00000041542B534150425261
:1016B0003D332C312C22434F4E54595045222C227D
:1016C0004750525322000000BCA4BBEE4750525377
:1016D000CAA7B0DC0D0A0000BCA4BBEE47505253B1
:1016E000B3C9B9A60D0A0000B5C8B4FDC9E8D6C390
:1016F000BDD3C8EBB5E32E2E2E202E2E2E0D0A00C4
:1017000041542B53415042523D332C312C224150F5
:101710004E222C22434D494F54220000C9E8D6C323
:10172000BDD3C8EBB5E3CAA7B0DC0D0A00000000CA
:10173000C9E8D6C3BDD3C8EBB5E3B3C9B9A60D0A92
:1017400000000000B5C8B4FDB4F2BFAA4750525320
:10175000CDF8C2E72E2E2E202E2E2E0D0A000000D0
:1017600041542B53415042523D312C310000000076
:10177000B4F2BFAA47505253CDF8C2E7CAA7B0DCB3
:101780000D0A0000B4F2BFAA47505253CDF8C2E789
:10179000B3C9B9A60D0A0000440000209013002030
:1017A00041542B43495053544152543D22544350C9
:1017B000222C222573222C222564220D0A000000EF
:1017C000434F4E4E4543540041542B434950434CE4
:1017D0004F53450D0A000000434C4F5345204F4BDB
:1017E00000000000C7EBB5C8B4FDD7A2B2E1C9CF75
:1017F000CDF8C2E72E2E2E202E2E2E0D0A00000030
:10180000D7A2B2E1CDF8C2E7B3ACCAB1A3ACD7BCA2
:10181000B1B8D6D8C6F40D0A00000000D7A2B2E1D4
:10182000C9CFCDF8C2E70D0A00000000B2E9D1AF80
:10183000D0C5BAC5C7BFB6C8B3ACCAB1A3ACD7BCD4
:10184000B1B8D6D8C6F40D0A00000000C7EBB5C881
:10185000B4FDB8BDD7C5C9CF475052532E2E2E2048
:101860002E2E2E0D0A000000B2E9D1AFB8BDD7C5AB
:1018700047505253B3ACCAB1A3ACD7BCB1B8D6D859
:10188000C6F40D0A00000000B8BDD7C5C9CF475047
:1018900052530D0A00000000C7EBB5C8B4FDC9E8FB
:1018A000D6C3B5A5C1B4BDD32E2E2E202E2E2E0DFF
:1018B0000A00000041542B4349504D55583D30001B
:1018C000C9E8D6C3B5A5C1B4BDD3CAA7B0DCA3AC23
:1018D000D7BCB1B8D6D8C6F40D0A0000C9E8D6C343
:1018E000B5A5C1B4BDD3C4A3CABDB3C9B9A60D0AB9
:1018F00000000000C7EBB5C8B4FDC9E8D6C3CDB839
:10190000B4AB2E2E2E202E2E2E0D0A0041542B432A
:1019100049504D4F44453D3100000000C9E8D6C351
:10192000CDB8B4ABCAA7B0DCA3ACD7BCB1B8D6D8DD
:10193000C6F40D0A00000000C9E8D6C3CDB8B4ABA8
:10194000B3C9B9A60D0A0000BCA4BBEECDF8C2E72E
:10195000CAA7B0DCA3ACD7BCB1B8D6D8C6F40D0AC0
:1019600000000000C7EBB5C8B4FDC1ACBDD3C9CF02
:10197000B7FECEF1C6F72E2E2E202E2E2E0D0A00EB
:10198000C1ACBDD3CAA7B0DCA3ACD7BCB1B8D4D965
:10199000B4CEC1ACBDD30D0A00000000C1ACBDD3B4
:1019A000D2ECB3A3A3ACD7BCB1B8D6D8C6F40D0A59
:1019B00000000000C1ACBDD3B2BBC9CFB7FECEF1B1
:1019C000C6F7A3ACD7BCB1B8D6D8C6F40D0A000090
:1019D00008B54FF4C06000F077F927208DF80000BB
:1019E00001208DF801008DF802008DF80300684693
:1019F00000F06FF908BD10B586B004460121022041
:101A000000F0F6FC0121880400F03BFD07220B21C9
:101A1000444800F0DAFA07220A21424800F0D5FAD9
:101A200000208DF8160001208DF8170002208DF897
:101A300014004002049002208DF8150004A93948D2
:101A400000F038FA02208DF814008002049004A9F6
:101A5000344800F02FFA00940020ADF80400ADF8EF
:101A60000600ADF80800ADF80C000C20ADF80A0037
:101A700069462D4801F0C9FCFFF7AAFF012240F298
:101A80002551294801F0FFFD0121274801F045FDBE
:101A900006B010BD0FB438B505A800902348009AD1
:101AA000049901F09DFF00200090204802F0E0F929
:101AB000054600BF1C48008800F040000028F9D00F
:101AC00000240CE01948005D1749091D088000BF7B
:101AD0001548008800F040000028F9D0641CAC4292
:101AE000F0D338BC5DF814FB00BF0F4A128802F037
:101AF0004002002AF9D001210CE04A1C825C0A4B0A
:101B00001B1D1A8000BF084A128802F04002002AFA
:101B1000F9D0491C4378027803EB02228A42ECDABE
:101B200070470000000402400048004040190020B7
:101B30007FB505460C464FF4A06000F0C5F80121C2
:101B4000042000F09EFC154800F0A6FD0295ADF8BB
:101B500004400020ADF80600ADF80C0001A90F48C4
:101B600000F047FE01210D4801F00CFB0122114657
:101B70000A4801F0DFFA0021084800F0C3FE1E20E9
:101B80008DF8000000208DF8010001208DF8020082
:101B90008DF80300684600F09CF87FBD0008004007
:101BA0001FB54FF4A06000F08FF80121102000F065
:101BB00068FC344800F070FD4EF65F20029048F655
:101BC0009F40ADF804000020ADF80600ADF80C0011
:101BD00001A92C4800F00DFE01212A4801F0D2FA9B
:101BE00001221146274801F0A5FA0121254800F0FD
:101BF00089FE36208DF8000002208DF801000120BA
:101C00008DF802008DF80300684600F062F81FBDF1
:101C10001FB54FF4A06000F057F80121102000F02C
:101C200030FC184800F038FD44F61F60029041F681
:101C30001F40ADF804000020ADF80600ADF80C0020
:101C400001A9104800F0D5FD01210E4801F09AFAD3
:101C5000012211460B4801F06DFA0121094800F0FC
:101C600051FE36208DF8000001208DF80100002083
:101C70008DF8020001208DF80300684600F029F875
:101C80001FBD000000100040094880470948004778
:101C9000FEE7FEE7FEE7FEE7FEE7FEE7FEE7FEE71C
:101CA000FEE7FEE704480549054A064B7047000079
:101CB000D109000889010008681E0020682400205E
:101CC000682000206820002032490143324A116018
:101CD000704770B5002100230F22C4781CB32E4C2E
:101CE000246804F4E064C4F5E064C4F30721C1F19E
:101CF0000404E3B20A4144789C40E1B28478144081
:101D000021430C07210E254C05786155047804F019
:101D10001F050124AC4005786D11AD0005F1E025EB
:101D2000C5F8004109E0047804F01F050124AC4027
:101D30001B4D0678761145F8264070BD194A0A40B9
:101D40000243154B1B1F1A60704739B1124A121D0E
:101D500012680243104B1B1D1A6006E00E4A121D4A
:101D6000126882430C4B1B1D1A607047042808D16F
:101D70004FF0E021096941F004014FF0E0221161C8
:101D800007E04FF0E021096921F004014FF0E02263
:101D9000116170470000FA050CED00E000E400E07E
:101DA00080E100E080FFFF1F10B5044698488442A0
:101DB00008D10121084600F086FB0021012000F037
:101DC00082FB76E09348844208D10121022000F092
:101DD0007AFB0021022000F076FB6AE08E48844204
:101DE00008D10121042000F06EFB0021042000F046
:101DF0006AFB5EE08948844208D10121082000F096
:101E000062FB0021082000F05EFB52E0844884421F
:101E100008D10121102000F056FB0021102000F015
:101E200052FB46E07F48844208D10121202000F087
:101E30004AFB0021202000F046FB3AE07A48844229
:101E400008D10121402000F03EFB0021402000F09D
:101E50003AFB2EE07548844208D10121802000F031
:101E600032FB0021802000F02EFB22E070488442EB
:101E700008D10121801500F026FB0021A01500F0FB
:101E800022FB16E06B48844208D10121401500F086
:101E90001AFB0021601500F016FB0AE06648844238
:101EA00007D10121001500F00EFB0021201500F0E4
:101EB0000AFB10BDF0B50A4600210023002400BF34
:101EC0003DE0012505FA01F3156805EA03049C428B
:101ED00034D105684F000326BE40B543056015792F
:101EE0004E00B5400668354305601579012D02D0D6
:101EF0001579022D16D185684F000326BE40B543E3
:101F0000856055794E00B5408668354385604568E3
:101F100001268E40B5434560456896798E40B6B23D
:101F200035434560C5684F000326BE40B543C560D4
:101F3000D5794E00B540C6683543C560491C1029A7
:101F4000BFD3F0BD4FF6FF710160002101714171F7
:101F50008171C171704708B54FF480320092009AC8
:101F60000A430092009AC261C161009AC261C269CB
:101F70000092C269009208BD0246002013690B401E
:101F80000BB1012000E0002070470146086980B2D3
:101F900070470246002053690B400BB1012000E05E
:101FA000002070470146486980B27047018370473E
:101FB000418370470AB1018300E04183704741616A
:101FC000704742694A4042617047F0B500230024DF
:101FD0004D07ED0E02FA05F3CE1000F1200555F87D
:101FE00026504E07F70E0F26BE40B543CF1000F126
:101FF000200646F82750CE1000F1200555F826504F
:1020000045EA0304CE1000F1200545F82640F0BD56
:10201000000002400004024000080240000C0240A0
:10202000001002400014024000180240001C024050
:10203000002002400024024000280240F9480068C5
:1020400040F00100F74908600020F64908310860B7
:10205000F4480068F4490840F2490860F348091D53
:102060000860F348EF4984310860F0481038091DD2
:102070000860EC48006820F48020EA4908600020ED
:10208000E8490C310860E7498C310860704700214D
:10209000E44A921C117011460870704710B5014651
:1020A0000022002300204A11012A02D1DD4C2368BE
:1020B00008E0022A03D1DB4C7034236802E0D94CDB
:1020C0007434236801F01F02012494401C400CB1B9
:1020D000012000E0002010BD38B500200090002451
:1020E000002500BF3120FFF7D9FF05460098401CAE
:1020F00000900098B0F5A04F01D0002DF2D0312013
:10210000FFF7CCFF08B1012400E00024204638BDD1
:1021100001460020C34A106820F0F80040EAC100E0
:1021200010607047C349086070470021BD4A703293
:1021300011701170012802D004280AD104E0012195
:10214000B84A7032117005E00521B64A703211703C
:1021500000E000BF00BF7047B7490860704770B526
:10216000049C41EA82150126C6EB530645EA064562
:10217000054345EA0465AB4E361D356070BDAD497B
:1021800008667047820142EA0172A64B84331A60E6
:102190007047A8498866704710B5830143EA016318
:1021A00043EA02739F4C8834236010BDA14908673D
:1021B0007047A049C864704702460020994B083315
:1021C000186820F0EC6042EA01031843954B08338D
:1021D0001860704702460020924B0833186820F0C0
:1021E000784042EA010318438E4B08331860704769
:1021F000014600208B4A0832106820F00300084393
:102200001060704787480830006800F00C00704785
:1022100001460020834A0832106820F0F00008438D
:1022200010607047014600207E4A0832106820F492
:10223000E05008431060704701460020794A083298
:10224000106820F4604040EAC10010607047F0B5AB
:10225000002100220024022500260223714F0837A6
:102260003F6807F00C0121B1042905D0082937D1B6
:1022700005E0724F076036E0714F076033E0694F49
:102280003F1D3F68C7F38056664F3F1D3F6807F00C
:102290003F036EB16A4FB7FBF3F7DFF888C10CF16B
:1022A000040CDCF800C0CCF3881C07FB0CF40CE039
:1022B000624FB7FBF3F7DFF86CC10CF1040CDCF8EC
:1022C00000C0CCF3881C07FB0CF4564F3F1D3F6841
:1022D000C7F301477F1C7D00B4FBF5F7076002E000
:1022E000564F076000BF00BF4E4F08373F6807F0EA
:1022F000F0010909534F7A5C0768D7404760494F9E
:1023000008373F6807F4E051890A4E4F7A5C476806
:10231000D7408760434F08373F6807F46041490B57
:10232000484F7A5C4768D740C760F0BD002100F491
:102330004072B2F5407F0AD13A4A0832116821F45E
:10234000F811414A02401143364A08321160354AB9
:1023500070321268C0F30B031A43324B70331A60A9
:10236000704735494439086070473349403908603F
:10237000704736490860704701460020294A8C3270
:10238000106820F01F004A1E1043264A8C3210604D
:10239000704701460020234A8C32106820F4F85020
:1023A0004A1E40EA02201F4A8C32106070470146E4
:1023B00000201C4A8C32106820F440100843106042
:1023C000704701460020174A8C32106820F4400004
:1023D00008431060704701460020124A8C32106892
:1023E00020F4403008431060704719490860704776
:1023F00039B10C4A3032126802430A4B30331A604A
:1024000006E0084A303212688243064B30331A60C5
:102410007047F9B1034A343212680243014B343336
:102420001A601CE000380240FFFFF6EA103000247A
:102430000030002000004742800E47420024F40094
:1024400000127A0060000020FFFCFF0F5C01474291
:10245000E01147428F4A126882438E4B1A607047E0
:1024600039B18C4A121D126802438A4B1B1D1A6037
:1024700006E0884A121D12688243864B1B1D1A60B3
:10248000704739B1834A0C3212680243814B0C33D6
:102490001A6006E07F4A0C32126882437D4B0C338F
:1024A0001A60704739B17B4A103212680243794B87
:1024B00010331A6006E0774A103212688243754B77
:1024C00010331A60704739B1724A243A12680243D5
:1024D000704B243B1A6006E06E4A243A126882432D
:1024E0006C4B243B1A60704739B16A4A203A126833
:1024F0000243684B203B1A6006E0664A203A1268A5
:102500008243644B203B1A60704739B1614A1C3AE0
:10251000126802435F4B1C3B1A6006E05D4A1C3A9E
:10252000126882435B4B1C3B1A60704739B1594AB1
:10253000143A12680243574B143B1A6006E0554A9E
:10254000143A12688243534B143B1A60704739B1F6
:10255000504A103A126802434E4B103B1A6006E094
:102560004C4A103A126882434A4B103B1A6070473B
:1025700039B1484A1C3212680243464B1C331A6078
:1025800006E0444A1C3212688243424B1C331A60F4
:10259000704739B13F4A2032126802433D4B203325
:1025A0001A6006E03B4A203212688243394B2033DE
:1025B0001A60704739B1374A243212680243354BEA
:1025C00024331A6006E0334A243212688243314BC6
:1025D00024331A60704739B12E4A2C3212680243F4
:1025E0002C4B2C331A6006E02A4A2C3212688243A4
:1025F000284B2C331A60704739B1264A30321268A2
:102600000243244B30331A6006E0224A303212680B
:102610008243204B30331A607047012808D11D498E
:102620003C31096841F008011A4A3C32116007E068
:1026300018493C31096821F00801164A3C32116002
:10264000704739B1134A273A12780243114B273B9E
:102650001A7006E00F4A273A127882430D4B273B47
:102660001A7070470B484030006840F0807009498C
:1026700040310860704701460020064A283A126837
:102680000A400AB1012000E00020704701492639C4
:10269000087070473438024010B50446FE48844242
:1026A00008D101210846FFF752FF00210120FFF762
:1026B0004EFF9DE0B4F1804F08D101210846FFF79D
:1026C00035FF00210120FFF731FF91E0F3488442FC
:1026D00008D101210220FFF729FF00210220FFF786
:1026E00025FF85E0EE48844208D101210420FFF750
:1026F0001DFF00210420FFF719FF79E0E94884421B
:1027000008D101210820FFF711FF00210820FFF761
:102710000DFF6DE0E448844208D101211020FFF74D
:1027200005FF00211020FFF701FF61E0DF48844230
:1027300008D101212020FFF7F9FE00212020FFF71A
:10274000F5FE55E0DA48844208D101210220FFF766
:10275000FEFE00210220FFF7FAFE49E0D548844240
:1027600009D101210804FFF7F2FE00214FF4803067
:10277000FFF7EDFE3CE0D048844209D10121480436
:10278000FFF7E5FE00214FF40030FFF7E0FE2FE0F9
:10279000CA48844209D101218804FFF7D8FE0021EC
:1027A0004FF48020FFF7D3FE22E0C548844208D1D1
:1027B00001214020FFF7BAFE00214020FFF7B6FEBE
:1027C00016E0C048844208D101218020FFF7AEFE08
:1027D00000218020FFF7AAFE0AE0BB48844207D10F
:1027E00001218015FFF7A2FE0021A015FFF79EFE34
:1027F00010BD00220288A84B98420ED0AC4B9842E4
:102800000BD0B0F1804F08D0A44B984205D0A44B18
:10281000984202D0A34B984204D14FF68F731A40CE
:102820004B881A43A04B984207D0A04B984204D043
:102830004FF6FF431A400B891A4302804B68C3626C
:102840000B880385944B984202D0994B984201D152
:102850008B7A03860123838270474FF0FF314160FA
:10286000002101800181418081727047018582824F
:1028700070470A46002101884FF68F7319401143B3
:102880000180704741627047C16270470146486AE3
:1028900070470146088D704721B1028842F002025C
:1028A000028004E002884FF6FD731A4002807047F0
:1028B00021B1028842F00402028004E002884FF64F
:1028C000FB731A400280704721B1028842F08002F7
:1028D000028004E002884FF67F731A40028070473E
:1028E00002884FF6F7731A40028002880A4302807A
:1028F000704702884FF6FF431A40028002880A435D
:102900000280704721B1028842F00102028004E097
:1029100002884FF6FE731A400280704770B500249B
:1029200000220023058C4FF6FE7635400584028C8C
:102930008388048B4FF68F752C40B51E2C400D8874
:102940002C43751E2A408D892A434D882A43524DB7
:10295000A84202D0564DA84213D14FF6F7752A402F
:10296000CD892A434FF6FB752A408D882A434FF6BE
:10297000FF652B404FF6FF552B400D8A2B434D8AA8
:102980002B43838004838D684563028470BD70B5DA
:10299000002400220023058C4FF6EF763540058495
:1029A000028C8388048B48F6FF752C404FF6FF4558
:1029B0002C400D884FF6FF7606EA05252C434FF68E
:1029C000DF752A408D8906EA05152A434D8806EAF7
:1029D00005152A43304DA84202D0354DA8421DD1DD
:1029E0004FF67F752A40CD894FF6FF7606EA05152A
:1029F0002A434FF6BF752A408D8806EA05152A43FB
:102A00004FF6FF352B404FF2FF752B400D8A06EA3B
:102A100085052B434D8A06EA85052B438380048375
:102A20008D688563028470BD70B500240022002388
:102A3000058C4FF6FF6635400584028C8388848BB5
:102A40004FF68F752C404FF6FC752C400D882C43AB
:102A50004FF6FF552A408D894FF6FF7606EA052589
:102A60002A434D8806EA05252A430B4DA84202D089
:102A70000F4DA84238D14FF2FF752A40CD894FF64D
:102A8000FF7606EA05252A434FF6FF352A408D8852
:102A900006EA05252A4319E0000001400004004031
:102AA00000080040000C00400010004000140040EE
:102AB0000004014000400140004401400048014042
:102AC00000180040001C0040002000404EF6FF753A
:102AD0002B404DF6FF752B400D8A06EA05152B435A
:102AE0004D8A06EA05152B43838084838D68C56370
:102AF000028470BD70B5002200230024058C4EF6C0
:102B0000FF7635400584038C8488828B48F6FF75F8
:102B10002A404FF6FF452A400D884FF6FF7606EA19
:102B200005252A434DF6FF752B408D8906EA0535AC
:102B30002B434D8806EA05352B43FE4DA84202D0B3
:102B4000FD4DA84208D14BF6FF752C400D8A4FF67B
:102B5000FF7606EA85152C43848082838D680564A0
:102B6000038470BD0021018041808180816081816A
:102B7000C18101824182704770B503460020002464
:102B80001846183001258D40ACB21D8CA5431D841C
:102B900009B108290AD100EB610005684FF68F766C
:102BA000354005600568154305600FE00D1FC5F34E
:102BB0004E052844056848F6FF76354005600568EF
:102BC0004FF6FF7606EA02263543056070BD416385
:102BD000704781637047C1637047016470470A465C
:102BE0000021018B4FF68F73194011430183704709
:102BF0000A460021018B48F6FF7319404FF6FF7318
:102C000003EA02231943018370470A460021818B9E
:102C10004FF68F7319401143818370470A46002194
:102C2000818B48F6FF7319404FF6FF7303EA0223C6
:102C30001943818370470A460021018B4FF6F773D1
:102C400019401143018370470A460021018B4FF25E
:102C5000FF7319404FF6FF7303EA02231943018300
:102C600070470A460021818B4FF6F77319401143D4
:102C7000818370470A460021818B4FF2FF73194010
:102C80004FF6FF7303EA02231943818370470A4614
:102C90000021018B4FF6FB731940114301837047EC
:102CA0000A460021018B4FF6FF3319404FF6FF73A0
:102CB00003EA02231943018370470A460021818BEE
:102CC0004FF6FB7319401143818370470A46002178
:102CD000818B4FF6FF3319404FF6FF7303EA02234F
:102CE0001943818370470A460021018B4FF67F7399
:102CF00019401143018370470A460021018BC1F33B
:102D00000E014FF6FF7303EA022319430183704754
:102D10000A460021818B4FF67F731940114381834E
:102D200070470A460021818BC1F30E014FF6FF73F5
:102D300003EA02231943818370470A460021018C6C
:102D40004FF6FD7319401143018470470A46002174
:102D5000018C4FF6F77319401143018470470A46FE
:102D60000021018C4FF6DF7319404FF6FF7303EA21
:102D700002131943018470470A460021018C4FF663
:102D80007F7319404FF6FF7303EA0213194301845E
:102D900070470A460021018C4FF6FF5319404FF649
:102DA000FF7303EA02231943018470470A46002196
:102DB000018C4FF2FF7319404FF6FF7303EA0223B1
:102DC0001943018470470A460021018C4DF6FF73B8
:102DD00019404FF6FF7303EA023319430184704729
:102DE00030B5002301248C40A3B2048C9C4304849E
:102DF000048C02FA01F5ADB22C43048430BD30B529
:102E0000002304248C40A3B2048C9C430484048CCF
:102E100002FA01F5ADB22C43048430BD828B4FF22F
:102E2000FF331A408283828B4FF6FF7303EA01233C
:102E30001A4382837047F0B50C46154600210022E4
:102E40000026078C4EF6FF7C07EA0C070784818B6F
:102E5000028C4FF6FF7707EA043640F6FF47394009
:102E60004FF6FF7707EA052739434FF6FF7707EA62
:102E70000337394345F6FF773A4046F480573A43E3
:102E800081830284F0BD828B4FF6F3731A408283F4
:102E9000828B0A4382837047F0B50C4615460021A9
:102EA00000220026078C4FF6FF6C07EA0C07078408
:102EB000818B028C4FF6FF7707EA04264FF60C77DA
:102EC00039404FF6FF7707EA03172F4339434FF294
:102ED000FF573A4046F480773A4381830284F0BD3D
:102EE000028B4FF2FF331A400283028B4FF6FF73BF
:102EF00003EA01231A4302837047F0B50C461546D6
:102F0000002100220026078C4FF6EF7C07EA0C0711
:102F10000784018B028C4FF6FF7707EA041640F610
:102F2000FF4739404FF6FF7707EA033739434FF63B
:102F3000FF7703E0000001400004014007EA052795
:102F400039434FF65F773A4046F010073A43018322
:102F50000284F0BD028B4FF6F3731A400283028B9A
:102F60000A4302837047F0B50C4615460021002243
:102F7000068C4FF6FE773E400684018B028C4FF69E
:102F80000C7631407E1C06EA03162E4331434FF681
:102F9000F576324044F00106324301830284F0BDED
:102FA00070B505460C46208850B92389A2886188EF
:102FB0002846FFF7D8FFE1882846FFF7CBFF25E03A
:102FC000208804280AD12389A28861882846FFF72F
:102FD00094FFE1882846FFF783FF17E02088082840
:102FE0000AD12389A28861882846FFF755FFE18826
:102FF0002846FFF748FF09E02389A2886188284610
:10300000FFF719FFE1882846FFF708FF70BD002190
:1030100001804180012181800021C18001817047B0
:103020002DE9F04105460C4600260127608808B9C5
:10303000022600E00026A088012801D1022700E036
:1030400001272088A0B92389A28861882846FFF734
:103050008AFFE1882846FFF77DFF23893A463146FB
:103060002846FFF74AFFE1882846FFF739FF13E0BB
:103070002389A28861882846FFF73FFFE188284618
:10308000FFF72EFF23893A4631462846FFF76BFFAC
:10309000E1882846FFF75EFFBDE8F0810146486BF6
:1030A00070470146886B70470146C86B7047014600
:1030B000086C70470A884B881A438B881A43CB8860
:1030C0001A430B891A434B891A438B891A43A0F878
:1030D000442070470021018041808180C1800181AE
:1030E00041818181704731B1B0F8442042F40042FF
:1030F000A0F8442005E0B0F84420C2F30E02A0F886
:103100004420704721B1828842F00402828004E0AA
:1031100082884FF6FB731A408280704721B1828803
:1031200042F00102828004E082884FF6FE731A406A
:10313000828070471AB183890B43838102E08389BF
:103140008B43838170478182704702460020138A37
:103150000B400BB1012000E000207047CA430282FF
:10316000704730B50246002000230024158A05EA86
:103170000103958905EA010413B10CB1012000E0B7
:10318000002030BDCA430282704741EA0203A0F822
:10319000483070471AB183890B43838102E08389E9
:1031A0008B438381704721B1828842F0080282807C
:1031B00004E082884FF6F7731A40828070470189D5
:1031C0004FF6F8721140018170470A4600210189CB
:1031D0004FF68F73194011430181704730B5044693
:1031E0000D4629462046FFF7F0FF208940F00700F2
:1031F000208130BD2DE9F04104460D4616461F469C
:10320000602D06D13B46012231462046FFF775FE70
:1032100005E03B46012231462046FFF7A4FE294641
:103220002046FFF7D2FF208940F007002081BDE84B
:10323000F08130B50C4600210189C9B24FF6FF7507
:1032400005EA0325154325432943018130BD2DE9B6
:10325000F04105460E4617469846002443463A4636
:1032600031462846FFF7E5FF2C894FF6F8700440F9
:1032700044F007044FF68F70044044F070042C8132
:10328000BDE8F081F0B504460D4616461F463B46A4
:10329000324629462046FFF7CCFF208940F4804083
:1032A0002081F0BD82884FF68F731A408280828819
:1032B0000A438280704702894FF6F8731A400281F0
:1032C00002890A430281704702894FF67F731A40D0
:1032D000028102890A4302817047F0B50C46154607
:1032E0001E460021002200230189028B038C4FF629
:1032F000F877394021434FF6FC473A4040F2011736
:103300003A434FF6DD773B404FF6FF7707EA061763
:103310002F433B43018102830384F0BD21B18288A6
:1033200042F08002828004E082884FF67F731A4068
:1033300082807047A0F850107047000010B5044616
:10334000FA48844208D101211020FFF700F900213A
:103350001020FFF7FCF857E0F548844209D101211D
:103360004804FFF7E3F800214FF40030FFF7DEF8E0
:103370004AE0F048844209D101218804FFF7D6F8D9
:1033800000214FF48020FFF7D1F83DE0EA48844265
:1033900009D10121C804FFF7C9F800214FF400202A
:1033A000FFF7C4F830E0E548844209D1012108055F
:1033B000FFF7BCF800214FF48010FFF7B7F823E0C7
:1033C000DF48844208D101212020FFF7C0F8002106
:1033D0002020FFF7BCF817E0DA48844209D1012128
:1033E0008807FFF7A3F800214FF08040FFF79EF811
:1033F0000AE0D548844207D101214005FFF796F83D
:1034000000216005FFF792F810BD2DE9FF47054642
:103410000E460024A14600BFA046B08900B100BFFF
:103420002C8A24F44054F08804432C82AC8941F265
:103430000C608443B0883189084371890843044390
:10344000AC81AC8A24F44074B0890443AC826846F1
:10345000FEF7FDFEB548854202D0B948854202D14B
:10346000DDF80C9001E0DDF80890A88900F4004038
:1034700040B109EBC90000EB091031684900B0FB0D
:10348000F1F707E009EBC90000EB0910316889008A
:10349000B0FBF1F76420B7FBF0F0040120096421D0
:1034A00001FB1078A88900F4004040B1322000EB05
:1034B000C800B0FBF1F000F00700044308E0322040
:1034C00000EB08106421B0FBF1F000F00F000443A2
:1034D0002C81BDE8FF874FF41651016000218180E7
:1034E000C18001810C21418100218181704710B58B
:1034F00002460020108A20F470600B884C88234319
:103500008C882343CC8823431843108210BD0021AC
:10351000018041808180C180704721B1828942F45D
:103520000052828104E082894DF6FF731A40828145
:103530007047028B02F47F420283028B0A430283AC
:10354000704721B1828942F40042828103E082897E
:10355000C2F30E028281704721B1828A42F4006276
:10356000828204E0828A4FF2FF731A40828270479F
:10357000C1F308028280704701468888C0F30800C2
:103580007047028A4FF6F0731A400282028A0A4399
:103590000282704721B1828942F00202828104E0F6
:1035A00082894FF6FD731A408281704782894FF2FB
:1035B000FF731A40828182890A4382817047028A9E
:1035C0004FF6DF731A400282028A0A430282704772
:1035D00021B1028A42F48042028204E0028A4BF660
:1035E000FF731A4002827047818941F00101818195
:1035F000704721B1828A42F00802828204E0828A06
:103600004FF6F7731A4082827047028BD2B2028360
:10361000028B42EA01220283704721B1828A42F082
:103620002002828204E0828A4FF6DF731A4082828F
:10363000704721B1828A42F01002828204E0828ABD
:103640004FF6EF731A4082827047828A4FF6FB73FF
:103650001A408282828A0A438282704721B1828A1A
:1036600042F00202828204E0828A4FF6FD731A4021
:10367000828270471AB1838A0B43838202E0838A75
:103680008B4383827047F0B5034600240026002553
:10369000002040F66A17B94200D100BF1846C1F3B6
:1036A000421401F01F06012707FA06F5012C01D18B
:1036B0000C3004E0022C01D1103000E014301AB1BB
:1036C00007682F43076002E00768AF430760F0BD5B
:1036D00002460020B1F5007F00D100BF13880B40E7
:1036E0000BB1012000E00020704701F40072B2F538
:1036F000007F00D100BFCA430280704770B5024608
:10370000002400230025002040F66A16B14200D1B3
:1037100000BFC1F3421501F01F03012606FA03F3AF
:10372000012D13D19689334017E0000000100140AD
:103730000044004000480040004C00400050004061
:103740000014014000780040007C0040022D02D1AE
:10375000168A334001E0968A33400C12012606FA9D
:1037600004F41688344013B10CB1012000E00020AD
:1037700070BD10B50022002340F66A14A14200D1AA
:1037800000BF0A1201249440A3B2DC43048010BDA0
:1037900010B504466FF00400FEF7E8FAE11704EBF9
:1037A0005171C1F3C701394A11701046007800EB1E
:1037B0004001C1EBC0104FF6FF7101EAC00034496F
:1037C000088010BD0146314A12784A434FF0E02389
:1037D0005A6100229A611A46126942F001021A6186
:1037E00000BF4FF0E022106900F001021AB100F4AE
:1037F0008032002AF5D04FF0E022126922F0010257
:103800004FF0E0231A6100229A6170470146204A76
:1038100012884A434FF0E0235A6100229A611A4607
:10382000126942F001021A6100BF4FF0E0221069F4
:1038300000F001021AB100F48032002AF5D04FF0F6
:10384000E022126922F001024FF0E0231A61002207
:103850009A61704770B504464FF4077094FBF0F01E
:10386000C6B24FF4077094FBF0F100FB114085B233
:1038700005E04FF40770FFF7C9FF701EC6B2002EB7
:10388000F7D115B12846FFF7C1FF70BD70000020C9
:103890007200002000BF704700BF4C4A128802F03F
:1038A0004002002AF9D0C2B2484B9A80704710B546
:1038B00088B0044601210846FEF79AFD0121102038
:1038C000FEF7F0FD072209214148FEF77EFB0722A3
:1038D0000A213F48FEF779FB4FF4C06006900220B2
:1038E0008DF81C008DF81D0000208DF81E000120B1
:1038F0008DF81F0006A93648FEF7DCFA0294002076
:10390000ADF80C00ADF80E00ADF81000ADF81400E5
:103910000C20ADF8120002A92C48FFF776FD01211A
:103920002A48FFF7FAFD012240F225512748FFF708
:10393000AAFE25208DF8040003208DF805008DF8DF
:10394000060001208DF8070001A8FEF7C2F908B0B3
:1039500010BD10B540F225511C48FFF7CFFE10B343
:103960001A48FFF709FEC4B21A48008800F4004064
:10397000C8B91848008800F4804060B10A2C03D010
:1039800000201449088020E01248008840F40040DC
:103990001049088019E00D2C06D10E48008840F42B
:1039A00080400C49088010E00A480088C0F30D00F0
:1039B00009490C5407480088401C064908800846FD
:1039C0000088C72801DD0020088010BD00100140DC
:1039D0000000024078000020401D002070470000D9
:1039E0001CB50C46064B7B4469460090204600F00F
:1039F00074FB04460020694600F082FB20461CBD93
:103A0000170700000FB4044910B503AA029800F08C
:103A100093FB10BC5DF814FB740000200FB41CB5C0
:103A2000084B06AA7B4469460090059800F055FBB8
:103A300004460020694600F063FB20461CBC5DF88C
:103A400014FB0000D906000070B50C460546012A9B
:103A500005D02878800600D5EA69002302E001231A
:103A600005E05B1C934202D2E05C0028F9D1A86912
:103A7000E618C01AA861286A18442862284600F08F
:103A800081FA04E0D5E9012114F8010B9047B44212
:103A9000F8D3284600F08CFA70BD00002DE9F04103
:103AA0000646002410687529314616A510D000F08E
:103AB00090FA002802DA404213A507E031688A072D
:103AC00001D512A502E0490704D511A5012401E0A2
:103AD00000F088FA00210A2206F1240709E0B0FB71
:103AE000F2FCB0FBF2F302FB1C00303078541846B5
:103AF000491C0028F3D123462A463046BDE8F04150
:103B000000F079BA000000002D0000002B0000003A
:103B100020000000F0B40D460188090502D5214CB3
:103B20007C4402E01F4C7C440E34002100F124064A
:103B300008E002F00F071209E75D42EA03721B0971
:103B40007754491C52EA0307F3D102780023120785
:103B500004D5702D06D009B1022311342246F0BCE1
:103B600000F049BA01231034F8E770B504460D4659
:103B70002146106800F036FA024629462046BDE884
:103B800070400023C6E7D21D22F00703D3E90023CB
:103B9000C0E70368126843F0200303600823C36191
:103BA0000023B7E73A1C00002DE9F05F8946044680
:103BB0004FF0000ADFF874B1FB44C0F820A02046A3
:103BC000E1688847002874D0252806D0D4E901216F
:103BD0009047206A401C2062F1E700265F4620469D
:103BE000E16888472028054607DB312D05D2781982
:103BF00010F8200C08B10643F1E7B00701D526F014
:103C00000406C4F81CA00027C4F818A02A2D09D067
:103C1000284601F069FD38B304EB8708303DC8F849
:103C2000185019E059F8041B204604EB87029161F3
:103C3000E1688847012F054618D1E069002820DA9D
:103C400026F020061DE0D8F8180000EB800005EBF8
:103C500040003038C8F818002046E168884705461B
:103C600001F042FD0028EED1012F0AD02E2D08D1FF
:103C70002046E16888477F1C0546022F46F0200653
:103C8000C4DBA069002803DA404246F00106A061C7
:103C9000F00701D026F010066C2D0BD0682D09D04E
:103CA0004C2D39D06A2D35D0742D35D07A2D33D0A6
:103CB00016E038E0E1682F4620468847B8420546BE
:103CC00009D16C2F26D04FF48060E168064320466E
:103CD0008847054604E06C2F1AD04FF480700643E5
:103CE0000DB3A5F14100192802D8203546F400662D
:103CF0004A462946204626604E46FCF77FFA80B1A8
:103D000001280BD0F61D26F0070000F1080956E740
:103D10004020E4E78020D8E70020D6E706F1040938
:103D20004DE7284652E7206ABDE8F09FCA1B000015
:103D30000FB400B58DB010A9099000910B904FF011
:103D4000FF300A9000200C90064878440690064800
:103D500078446A4607900F9909A800F0D9FA0DB087
:103D60005DF814FBE3050000FB0500002DE9FF5F93
:103D70004FF000089946144646469169D2E901A7DA
:103D8000DDF838B001988847054659EA0B0005D0A0
:103D900009E0A1690198761C88470546216A2846F2
:103DA00088470028F5D1681C03D05FEACA7005D0A7
:103DB00015E04FF0FF3004B0BDE8F09F2068011D12
:103DC0002160D0F800800AE05FEACA7001D108F8EB
:103DD000015BA169761C01987F1E88470546002F6C
:103DE0001ADD681C18D0B9F1000F0DD0E81705EBEB
:103DF000D060421120F01F0059F822102A1A012029
:103E000090400142E0D107E0BBF1000FDCD1284631
:103E1000216A88470028D7D0E16901988847BBF11B
:103E2000000F07D1002E05DD5FEACA7002D1002124
:103E300088F80010A068B84203DDBBF1000F03D082
:103E400017B16FF00100B6E73046B4E730B505466C
:103E50000B462A4613F8014B12F8010B08B1A04299
:103E6000F8D01CB1002802D06D1CF1E7284630BD07
:103E700010B5431C02E010F8011B71B18107FAD1A3
:103E80004FF0013202C88C1A8C4314EAC211F9D0E7
:103E9000C01A0A0603D0C01E10BDC01A10BD0A0405
:103EA00001D0801E10BD0902FCD0401E10BD032AA7
:103EB00040F2308010F0030C00F0158011F8013B47
:103EC000BCF1020F624498BF11F801CB00F8013B2E
:103ED00038BF11F8013BA2F1040298BF00F801CBF2
:103EE00038BF00F8013B11F0030300F04182083AAB
:103EF000C0F0088051F8043B083A51F804CBA0E820
:103F00000810F5E7121D5CBF51F8043B40F8043B74
:103F1000AFF30080D20724BF11F8013B11F801CBA9
:103F200048BF11F8012B24BF00F8013B00F801CB7A
:103F300048BF00F8012B70474FF000020429C0F081
:103F4000128010F0030C00F04782CCF1040CBCF19D
:103F5000020F18BF00F8012BA8BF20F8022BA1EB1D
:103F60000C0100F039BA5FEAC17C24BF00F8012BD4
:103F700000F8012B48BF00F8012B704770477047CD
:103F80007047704770B5044685690068C10601D561
:103F9000302600E02026C00707D070BDD4E90121FB
:103FA00030469047206A401C20626D1EF6D570BDD9
:103FB00070B5044685690078C00707D170BDD4E9A3
:103FC000012120209047206A401C20626D1EF6D5FA
:103FD00070BD09684A0501D540B27047C905FCD5D6
:103FE00000B2704709684A0501D5C0B27047C905DB
:103FF000FCD580B270472DE9F0470D4699469246B0
:10400000044600F124080168880604D5E06921F01F
:104010001001216000E00120A84201DD471B00E003
:104020000027A1697A1902EB0900081AA06120781B
:10403000C00602D42046FFF7A5FF002608E0D4E919
:1040400001211AF806009047206A401C761C206265
:104050004E45F4DB2078C0060AD52046FFF792FFD4
:1040600006E0D4E9012130209047206A401C2062FC
:10407000381EA7F10107F4DC07E0D4E9012118F8A4
:1040800005009047206A401C2062281EA5F101050A
:10409000F3DC2046FFF78CFF2078000602D50220D3
:1040A000BDE8F0870120FBE711680268006A53054C
:1040B00001D508700AE0D30501D5088006E0130693
:1040C00003D5C217C1E9000200E008600120704773
:1040D00001694A1C02610878704700B58FB0CDE9CC
:1040E00001310021059105497944CDE903101146BC
:1040F0006846FFF759FD0FB000BD0000E5FFFFFF68
:104100000A6802F8010B0A60704710B5436913B1E1
:10411000AFF3008001E0FFF797FC012010BD12789B
:1041200000F124010A7000224A700122EDE71168B3
:104130004FF0FF32E9E70000074B70B50D467B44B6
:10414000FFF7CBFF0446284600F098FD10B14FF072
:10415000FF3070BD204670BD57F7FFFF2DE9FF5FB0
:1041600015468A460446DFF8AC80F8440027D8E9B3
:1041700000103E46CDE9001010E03AF816106A46ED
:1041800002A800F07FFD411C07D02178890603D5E5
:10419000E269391891420DD80744761C20788006D0
:1041A00002D5E069B84205DDAE42E6DB3AF816001A
:1041B0000028E2D1A069C01BA0612046FFF7E2FE03
:1041C000D8E90010CDE90010002017E03AF81810E7
:1041D0006A4602A800F056FDB0F1FF3F81460BD0C1
:1041E00000250DF1080B05E0D4E901211BF80500BD
:1041F00090476D1C4D45F7D308F10100B042804651
:10420000E4DB206A384420622046FFF7D1FEBDE897
:10421000FF9F00002A1600002DE9F0418046D21DC4
:1042200022F007020025D2E90002F52915A614D0D4
:10423000011E72F1000106DA0023D0EB030063EBEC
:10424000020211A608E0D8F800108B0701D50FA6CE
:1042500002E0490701D50EA601251146002408F108
:10426000240704E000F0DDF830323A55641C50EACF
:104270000102F7D12B46324621464046BDE8F041C7
:10428000FFF7B9BE000000002D0000002B00000069
:104290002000000030B4002100F1240408E002F006
:1042A0000705D208303542EA4372DB086554491CE1
:1042B00052EA0305F3D10468002310A2250707D5AD
:1042C000A40600D421B1C46901230DA2641EC461F7
:1042D00030BCFFF790BE10B5044621461068FFF7CA
:1042E00081FE02462046BDE810400023D2E7D21DE1
:1042F00022F00701D1E90023CCE700000000000014
:1043000030000000026811441378016018467047BD
:10431000D160054979445161044979441162002111
:104320001161114600F0F0BAEDFFFFFF8F010000B0
:10433000426842B1016811F8013B23B1521EC0E945
:104340000012184670470121C160881E70474268FC
:104350005AB1C368016843B983688B4205D0491ECE
:10436000521CC0E90012002070474FF0FF30704728
:1043700010B5203AC0F00B80B1E81850203AA0E800
:104380001850B1E81850A0E81850BFF4F5AF5FEA34
:10439000027C24BFB1E81850A0E8185044BF18C9E7
:1043A00018C0BDE810405FEA827C24BF51F8043B8E
:1043B00040F8043B08BF7047D20728BF31F8023BE2
:1043C00048BF11F8012B28BF20F8023B48BF00F876
:1043D000012B70474FF0000200B5134694469646F5
:1043E000203922BFA0E80C50A0E80C50B1F1200108
:1043F000BFF4F7AF090728BFA0E80C5048BF0CC0B6
:104400005DF804EB890028BF40F8042B08BF704713
:1044100048BF20F8022B11F0804F18BF00F8012B85
:10442000704730B5B0F10A024FEA900E71F1000307
:104430004EEA817EB0EB0E0061EB91014FEA101E57
:104440004EEA017E10EB0E0041EB11114FEA102EE7
:104450004EEA016E10EB0E0041EB11214FEA104EB7
:104460004EEA014E10EB0E0041EB1141401841F1B4
:1044700000014FEAD00040EA41704FEAD10110EB51
:1044800080054FEA810444EA907444EB01046D19FD
:1044900044EB0404521BA3414FF0000348BF0A320F
:1044A00000D530BD401C41F1000130BD10B50446BF
:1044B00000F02EFC0068005D00F0010010BD7047A8
:1044C0002DE9FF4F0C461E464FF0FF378BB0D2E967
:1044D0000001DDF860800A908A46C1F30A5505B9EB
:1044E0003D46002108464FF00000BAF1000F00F4ED
:1044F000400005DA00EB80004FF4400101EA500073
:104500004FEA9059B9F1010F00DDB9460A9850EA17
:104510004A000ED044F61050A5F2FF3545432F1443
:10452000B8F1000F1ED07542291E1EDDC9F1000230
:104530001CE0B8F1010F4FF0000001D0302103E082
:10454000F24305E02154401CB042FBDB3046002220
:10455000002121540B99C1F80880C1E900200FB057
:10456000BDE8F08FBD1B6D1CDEE74A4600DA6942EC
:1045700006A800F019FC06AB93E8070003AB83E83C
:10458000070050460A9900F0CFFC8DE80700A0F51F
:1045900000501F3800900398002D0ADD42F21F01E1
:1045A0004A460844002303A90390684600F038FFF8
:1045B00009E0A0F500504A461F38002303A90390E4
:1045C000684600F042FF8DE807000004000C03D0AD
:1045D0004FF0FF30410800E01046B8F1000F03D063
:1045E0000022009215461EE0751E05D4FFF719FF44
:1045F000303262556D1EF9D5B3460122084302D010
:1046000000227F1C04E02078302801D100227F1E88
:10461000002A099784D01DE0112D07DAFFF701FF6A
:10462000303262556D1C50EA0102F5D1084302D0C8
:104630000098C8B10EE00021681E05E0235C625CB2
:1046400063542254401E491C8142F7DBAB46A81B31
:10465000401E0990002004F80B000B98099AC0F83E
:104660000880C0E9002B7AE711264FF0000857E7D1
:104670002DE9F04F88460446D21D22F0070191B083
:10468000D1E90001CDE90A0101F016F802460B98C4
:10469000C00F01D02D2007E02068810701D52B2015
:1046A00002E0202101EAC000032A099001D0072A74
:1046B00005DB03464146204600F036FB0BE120783F
:1046C000800601D5E06900E00620B8F1650F81465B
:1046D00006D0B8F1660F18D0B8F1670F70D131E08D
:1046E0000020B9F1110F009001DB112301E009F165
:1046F00001030AAA01A90CA8FFF7E2FEDDE90C708C
:10470000002609F10105834647E001204B46009051
:104710004FF000470AAA01A90CA8FFF7D1FEDDE976
:104720000DB00C995D46002610B909F101000D1875
:10473000B9EB050003D4C0F1FF3609F10105A5EB83
:1047400009002BE0B9F1010F01DA4FF00109002057
:10475000B9F1110F0090484601DD112300E0034636
:104760000AAA01A90CA8FFF7ABFEDDE90C704D46C3
:1047700000268346207800070AD4AB4500DA5D4660
:1047800001A8012D04DD411911F8011C302907D0C1
:104790004F4502DA17F1040F04DA012082460FE0D8
:1047A0006D1EEEE7002F02DCED1B3E4403E0781C9B
:1047B000A84200DD7D1CB81B00F1010A4FF0004744
:1047C0002078000703D4AA4501DB4FF0FF3A00210F
:1047D000B7F1004F0DF143088DF8431024D00220AB
:1047E0002B23002F01DA7F422D230A21021EA0F184
:1047F000010000DC5FB197FBF1FC97FBF1F201FBDC
:104800001C7C17460CF1300C08F801CDEEE7A8F13E
:10481000010003702188090501D5452100E06521CB
:10482000A0F1010800F8011C09980FA9A1EB0807E5
:10483000FF1D00B10120411901EBEA70A169384464
:10484000081A401EA0612078C00602D42046FFF757
:1048500099FB099828B1D4E901219047206A401CAE
:1048600020622078C00622D52046FFF78BFB1EE091
:10487000002E04DBB34502DD01A8805D00E030209E
:10488000D4E901219047206A401C2062761CAAF1DD
:1048900001005FEA000A0AD100F042FAC06801682C
:1048A000405CD4E901219047206A401C2062281E08
:1048B000A5F10105DCDC07E0D4E9012118F8010BC2
:1048C0009047206A401C2062381EA7F10107F3DCE4
:1048D0002046FFF76DFB032011B041E610B5436998
:1048E00013B1AFF3008001E0FFF738FC012010BDE9
:1048F000128800F1240182840022C2840122EDE7A3
:1049000011684FF0FF32E9E72DE9F34F4FF0000A4D
:104910000C4656468DB001200C9001F10C000B9016
:1049200062690B9801219047051E2DD0252D2CD0B2
:10493000216A8847C0B162690B9801219047216ABA
:1049400088470028F7D16269411E0B98904700E024
:10495000761CA1690D988847216A88470028F7D1FD
:10496000E1690D988847DBE7A1690D988847A8425F
:10497000074601D1761CD3E7E1690D9888477F1C73
:1049800002D1BAF1000F6FD06BE162690B9800277A
:104990003D46394690472A2804D162690B98012187
:1049A00090470125DFF8D08262690B98012190477A
:1049B000A0F130010A290AD24745E5DC07EB87015F
:1049C00000EB4107303FDFD445F01005ECE7E90686
:1049D00001D46FF000476C280AD04C2814D0682806
:1049E00015D06A280DD074281CD07A281AD01DE062
:1049F00062690B98012190476C2802D045F00405AC
:104A000014E045F002050DE045F020050AE062697A
:104A10000B9801219047682802D045F0080505E071
:104A200045F4006562690B9801219047C4E901577C
:104A300065283DD019DC58287AD00CDC452837D0C1
:104A400004DC252826D041289ED131E046282FD0ED
:104A5000472899D12CE05B2877D0612828D063289B
:104A60007CD0642823D15AE0F6E06F2848D008DCD7
:104A700066281DD067281BD0692821D06E2816D142
:104A800027E0702845D0732868D0752847D078284B
:104A90000DD14DE0A1690D988847252805463FF4C2
:104AA00069AFE1690D9888476D1C3FF46AAFD8E0A3
:104AB0000D9923466A466FF00100AFF30080C5E010
:104AC00045F0400023464FF000026060A80736D44E
:104AD0003EE0E8077FF447AF2068011D21600068D1
:104AE000290501D506701BE7290701D5068017E7C0
:104AF000A90703D5F117C0E9006111E706600FE7C8
:104B000045F0400023464FF008026060A80716D425
:104B10001EE040F60E0125EA0100606016E045F057
:104B2000400023464FF00A026060A80707D40FE058
:104B300045F040006060A80708D5234610220D9973
:104B40006FF00100AFF3008080E007E01022234601
:104B50000D996FF00100AFF3008077E04FF000098E
:104B600063284F46C8464B46CB4602D05B2806D04A
:104B700038E0E80601D40120A060012732E0626934
:104B8000D4F80CB00B98012190475E2807D14FF064
:104B9000010949466269D4F80CB00B989047216925
:104BA00039B900210A4603AB43F82120491C0829E2
:104BB000FADBD8B3216949B308F1010862690B989F
:104BC000012190475D28F4D1B9F1000F09D00020F0
:104BD00003A951F82020D24341F82020401C082886
:104BE000F7DB03AB2069002820794FEA40701ED024
:104BF0005B462246CDF80080CDE901970D9900284B
:104C00006FF0010020DAAFF300801FE0C11703AAA4
:104C100000EBD1614B1121F01F0102EB8302411A1D
:104C200013680120884003431360C7E719E00D991A
:104C3000224600286FF00100009702DAAFF30080EF
:104C400004E0FFF793F801E0AFF3008000280ADAF0
:104C5000401C06D10C9820B14FF0FF300FB0BDE8DA
:104C6000F08F5046FAE7E90701D10AF1010A06443C
:104C700000200C9054E60000CCCCCC0C007B00F063
:104C80008000704770B516460C46054600F040F8A7
:104C9000036893F80101012806D0FF2C0FD8185D96
:104CA00068B101202C7070BDD3F80701324621464F
:104CB00003F2071303442846BDE8704018474FF03D
:104CC000FF3070BD754600F0EBF8AE460500694652
:104CD000534620F00700854618B020B5FCF7E2FFE8
:104CE000BDE820404FF000064FF000074FF00008ED
:104CF0004FF0000B21F00701AC46ACE8C009ACE86E
:104D0000C009ACE8C009ACE8C0098D467047000096
:104D100010B500F005F8001D10BD00BF090A000025
:104D200000487047281E00202DE9F0411F46044628
:104D300003260168072A01F4006004DB08B116A508
:104D400005E016A503E008B115A500E015A521F0C2
:104D500010002060A069C01EA0610FB1401EA061BC
:104D60002046FFF70FF94FB1D4E9012138469047AB
:104D7000206A401C2062C01C206206E0206AFAE71C
:104D8000D4E9012115F8010B9047761EF8D2204690
:104D9000FFF70EF9BDE8F0814E414E006E616E00E6
:104DA000494E4600696E66002DE9F0478146164679
:104DB0008AB0354878440DC88DE80D0032487844F3
:104DC000801C03AC0DC884E80D0041F69B300844FC
:104DD000372190FBF1F290FBF1F5A5F1800501FB85
:104DE00012041B3C02D56442012000E00020DFF8E1
:104DF00098A080460027FA44AAF1BE0A0EE0E00718
:104E00000AD03246684607EB470101230AEB8101CD
:104E100000F01BFB8DE8070064107F1C002CEED116
:104E2000194F7F44AE3F19E0E80715D007EB041097
:104E30000DF1180A90E80E008AE80E00C068F042F2
:104E400001D1981908903246012306A903A800F061
:104E5000FCFA03AB83E807006D10641C002DE3D15E
:104E60004FF0010332466946B8F1000F03A802D0A3
:104E700000F0D6FA01E000F0E8FAC9E90001C9F84B
:104E800008200AB0BDE8F087640A000010B50446A7
:104E9000AFF300802046BDE81040FBF714BA0000D5
:104EA00000487047081E00204FF0013C50F8042BCA
:104EB00051F8043B9A4221D1A2EB0C03934313EA2D
:104EC000CC1317D150F8042B51F8043B9A4215D15A
:104ED000A2EB0C03934313EACC130BD150F8042B31
:104EE00051F8043B9A4209D1A2EB0C03934313EA15
:104EF000CC13DBD04FF00000704700BFD01A01BACE
:104F0000B1FA81F101F0180122FA01F0CB40C1F1B0
:104F10002001DBB2C0B2C01A2CFA01F3D11A9143BE
:104F200011EAC311E6D170475FEA400C08BF91F067
:104F3000000F4FEA8C234FEAC12243EA51514FEA56
:104F40001C5018BF00F5F0404FEA300018BF41F088
:104F500000415FEA6C5C00F02980BCF1FF3F08BFB4
:104F600040F080407047130C06BF12044FF0100C45
:104F70004FF0000C130E04BF12020CF1080C130FBB
:104F800004BF12010CF1040C930F04BF92000CF14A
:104F9000020CD30F04BF52000CF1010C11464FF06C
:104FA0000002A0F11F00A0EB0C00704711F0004FB1
:104FB00008BF704731F000413FF4D5AF0B0C06BF7E
:104FC00009044FF0100C4FF0000C0B0E04BF090247
:104FD0000CF1080C0B0F04BF09010CF1040C8B0F32
:104FE00004BF89000CF1020CCB0F04BF49000CF187
:104FF000010CCCF12003A0EB0C0022FA03F302FA1F
:105000000CF241EA030100F10100704720F07F4CEF
:1050100080EA030023F07F47ACEB070303F57C53E2
:1050200000F0004003F1FF032DE980494FEA154BE2
:1050300009B44FEA144325EA0B4E24EA03480FF261
:10504000042606EB132749083E785FEA320203FB89
:105050000667C7F5000707FB06F64FEA54374FEA25
:10506000D64606F1020607FB066CCCF1005C4FEA5F
:105070001C472CEA074C07FB06F40CFB06F504EB77
:1050800015464FEA961634BF00204FF000404FEA15
:10509000D13706FB07FC4FEA1C4C0CFB0BF7D21B6D
:1050A00003FB0CF761EB07010CFB0EF7B0EB0740BD
:1050B00072EB17420CFB08F734BFA2EB0742B2EBCE
:1050C000074261EB17414FEA0C444FEA910706FB98
:1050D00007FC4FEA1C4C0CFB0BF7B0EBC74072EB24
:1050E000573203FB0CF734BFA2EBC742B2EBC74207
:1050F00061EB57310CFB0EF7B0EBC70072EB577248
:105100000CFB08F734BFA2EBC702B2EBC70261EB9E
:105110005771039F4FEA816141EA921104EBCC047D
:105120004FEAD1374FEA826206FB07FC42EA90124F
:105130004FEA80604FEA1C4C0CFB0BF7D21B03FBC1
:105140000CF761EB07010CFB0EF7B0EB074072EBBD
:1051500017420CFB08F734BFA2EB0742B2EB074241
:1051600061EB17414FEA8C554FEA910704EB9C2401
:1051700006FB07FC4FEA1C4C0CFB0BF7B0EBC740DF
:1051800072EB573203FB0CF734BFA2EBC742B2EB12
:10519000C74261EB57310CFB0EF7B0EBC70072EB67
:1051A00057720CFB08F734BFA2EBC702B2EBC70281
:1051B00061EB577115EB4C254FEA816141EA921181
:1051C0004FEA82624FEAD13742EA901206FB07FCAF
:1051D00044F100044FEA80604FEA1C4C0CFB0BF7D3
:1051E000D21B03FB0CF761EB07010CFB0EF7B0EBD6
:1051F000074072EB17420CFB08F734BFA2EB0742E3
:10520000B2EB074261EB174115EB1C154FEA8131F8
:1052100041EA92414FEA823242EA90424FEA8030BC
:105220004FEA0C7644F1000448EA03434EEA0B4887
:105230004FF0000EB2EB080C71EB030724BF62467F
:1052400039464EEB0E0E4FF0000B0018524149410B
:105250004BEB0B0BB2EB080C71EB03077BF1000B74
:1052600024BF624639464EEB0E0E4FF0000B00187D
:10527000524149414BEB0B0BB2EB080C71EB0307AE
:105280007BF1000B24BF624639464EEB0E0E51EA0D
:10529000020718BF46F0010616EB0E7655F1000224
:1052A00054F1000103D5BDE88901BDE80088BDE8DF
:1052B0008901BDE80048B619524141EB0101A3F153
:1052C0000103704780807F7E7D7C7B7A797877765A
:1052D00076757473727171706F6E6E6D6C6C6B6AD3
:1052E0006A69686867666665646463636261616071
:1052F000605F5F5E5E5D5D5C5C5B5B5A5A595958EE
:105300005857575656555555545453535252525157
:10531000515050504F4F4F4E4E4D4D4D4C4C4C4BAD
:105320004B4B4A4A4A4949494848484747474746F4
:105330004646454545444444444343434342424230
:1053400042414141002B9C4630D477002BD01CB504
:105350004FEA370703B44FF010004FF01001BAF1D5
:10536000000F06D0BCF1000FDCBF40F0080040F099
:1053700008014FF000000FBCBDE810400BF1010B1D
:10538000BBF1010F08BF5FEA170722BF12F101024C
:1053900011F101014FF0004143F1000300F0004022
:1053A00043EA00007047F9D35708D0E746EA0646BB
:1053B00013F1400F4FEA16461FDD13F1200FDFBF38
:1053C00016430A46002120335B42BED0C3F12007BA
:1053D00046EA064602FA07F74FEA164646EA070685
:1053E000C3F1200722FA03F201FA07F721FA03F1C9
:1053F0004FF0000342EA0702A7E746EA020646EA40
:1054000006464FEA164646EA0106BCBF46EA06468D
:10541000360C4FF000034FF000024FF0000194E70C
:105420002DE9804C9A46934670B491E8380007C83D
:1054300031EA400C48BF34EA430C03D5FFF7E6FDE0
:10544000FFF780FFF0BCBDE8008C2DE9804C9A4648
:10545000934670B491E8380007C810F0804F08BF39
:1054600013F0804F03D100F005F8FFF76BFFF0BC9D
:10547000BDE8008C20F07F4780EA030023F07F4CDA
:1054800007EB0C03A3F57C5300F00040A3F1FE03EF
:1054900092F0000F00F0B38095F0000F00F07780DD
:1054A0002DE901494FEA11404FEA144621EA00482C
:1054B00000FB06FC24EA064708FB06F607FB08F893
:1054C00000FB07F718EB06484CEB164C4FEA124B63
:1054D00018EB07484FEA15464CEB174022EA0B4EF3
:1054E0000BFB06FC25EA06470EFB06F607FB0EFE45
:1054F0000BFB07F71EEB064E4CEB164C4FF000066D
:105500001EEB074E4CEB174B18EB0B0840F100005D
:1055100018EB0E0B58EB000840F100008F1A4FF00B
:1055200000013CBFC943661B14BFB5EB040C00214E
:105530003CBFC943F61B4FEA17444EEA8E0E27EADA
:1055400004454FEA1C4704FB07622CEA074C05FBA5
:1055500007F70CFB05F604FB0CFC16EB074642EBC9
:10556000174216EB0C4642EB1C421BEB060658EBAF
:105570000202414146EA9E0601D5BDE80189B619FD
:10558000524141EB0101A3F10103BDE801894FEA5A
:1055900014454FEA114724EA054621EA074C05FB6A
:1055A00007F406FB07F70CFB06F105FB0CFC11EBFF
:1055B000074144EB17444FEA124711EB0C4144EB0F
:1055C0001C4422EA074C05FB07F206FB07F70CFB1D
:1055D00006F605FB0CFC16EB074642EB174216EBF2
:1055E0000C4642EB1C456A1854F1000148BF704755
:1055F000B619524141EB0101A3F10103704795F047
:10560000000F37D04FEA11424FEA144721EA024611
:1056100024EA074C02FB07F106FB07F70CFB06F434
:1056200002FB0CFC14EB074441EB17414FEA154712
:1056300014EB0C4441EB1C4125EA074C02FB07F537
:1056400006FB07F70CFB06F602FB0CFC16EB074605
:1056500045EB174516EB0C4645EB1C42121951F170
:10566000000148BF7047B619524141EB0101A3F157
:10567000010370474FEA14454FEA114724EA0546F3
:1056800021EA074C05FB07F106FB07F70CFB06F2C6
:105690004FF0000605FB0CFC12EB074241EB1741F3
:1056A00012EB0C4251EB1C4148BF7047921841EB82
:1056B0000101A3F10103704703B401984100009870
:1056C00050EAC12018BF04204A0D18BF40F0010065
:1056D00040F2FF72B2EB515F08BF40F002000128B8
:1056E00008BF052002B0704730380A2801D20120D7
:1056F000704700207047000010B500290AD00878D4
:10570000002807D005487844FFF7CEFB002801D0D9
:10571000002010BD0248784410BD00009A0100002E
:105720009201000010B500290AD00878002807D09F
:1057300005487844FFF7B8FB002801D0002010BDD1
:105740000248784410BD00008A0100008201000078
:105750004FF04070E1EE100A7047FEF789BF30311C
:105760003233343536373839414243444546403088
:10577000580030313233343536373839616263643A
:10578000656640307800040000080000000000005A
:1057900000020001000010000000000000000000F6
:1057A00002400000000000A00000000005400000D2
:1057B000000000C8000000000C4000000000409CF9
:1057C00000000000194000000020BCBE00000000E6
:1057D00034400000BFC91B8E00000004B54000002B
:1057E000504BCFD06607E2CF010000006C410000B3
:1057F0003E8251AADFEEA73401000000D94200002A
:10580000DCB5A0E23A301F97FFFFFFFFB445000070
:10581000FD25A0C8E9A3C14FFFFFFFFFFF3F000028
:105820000000008000000000FF3F0000000000803A
:105830000000000039623665383631613135313962
:1058400063333564346264383537376665396434B8
:1058500065376330653634623031396263343638E7
:1058600065333062316663303161363663383562B4
:10587000623132313B686D61637368613235360085
:10588000CC590008000000207C000000C401000882
:10589000485A00087C000020EC230000E0010008CA
:1058A0001C00000043000000F8FFFFFF0C00000098
:1058B0000E0000000F0000002E000000100100008C
:1058C00043000000F8FFFFFF0040404040404040E0
:1058D00040404141414141404040404040404040C3
:1058E0004040404040404040400502020202020267
:1058F00002020202020202020220202020202020B6
:1059000020202002020202020202909090909090C9
:105910001010101010101010101010101010101087
:1059200010101010020202020202888888888888FB
:1059300008080808080808080808080808080808E7
:1059400008080808020202024000000000000000EF
:105950000000000000000000000000000000000047
:105960000000000000000000000000000000000037
:105970000000000000000000000000000000000027
:105980000000000000000000000000000000000017
:105990000000000000000000000000000000000007
:1059A00000000000000000000000000000000000F7
:1059B00000000000000000000000000000000000E7
:1059C000000000000000000000000000007A030A50
:1059D000000000000000000001020304060708099F
:1059E00000000000000000000000000000000000B7
:1059F00000000000000000000000000000000000A7
:105A00000000000000000000000000000000000096
:105A10000000000000000000000000000000000086
:105A20000000000000000000000000000000000076
:105A30000102030401020304060708090000000034
:085A400000000000000000005E
:040000050800018965
:00000001FF
