:100A23003C473ECED2CAC7D0A1B2BCA3ACBADCB855
:100A3300DFD0CBCEAAC4FAB7FECEF1003C473EC707
:100A4300B0B7BDB0DFC2EDCFDF003C473EC7B0B7A4
:100A5300BDC2A5CCDD003C473EC7B0B7BDD3D0D5A2
:100A6300CFB0ADCEEF003C473EBCECB2E2B5BDC467
:100A7300FAD2D1CBA4B5B9003C473ED2D1CEAAC459
:100A8300FAB1A8BEAF003C473ECDF8C2E7C1ACBD4A
:100A9300D3B3C9B9A6003C473ECED2D4DA0D0A007F
:010AA3000052
:060D8900015700015600B5
:10067200E4F5467592FFF591C294C295C296C2976F
:10068200120D6D120CB8120C0B120CE4E47857F632
:100692007BFF7A0A7923120D2F74132510F8E624B2
:1006A200CE601814601D14602214602714602C247C
:1006B2000570317BFF7A0A793F80267BFF7A0A79BF
:1006C2004D801E7BFF7A0A795980167BFF7A0A7960
:1006D20069800E7BFF7A0A797B80067BFF7A0A7932
:1006E20089120D4E7857E61460AF24F1601824DFAA
:1006F20060A72431702078577601120B72EF70993F
:100702007857763180931200067859EFF61205A7D2
:0D071200E47857F68083E47857F602069BE2
:100D6D00B2C2120D97B2C2120D97B2C2120D97B246
:0C0D7D00C2120D97B2C2120D97B2C22232
:100CB8007580FFE4F59075A0FF75B0FF75C0FF5310
:100CC8008E7F438901F58A758C28C28DD28CD2A972
:0C0CD800C2C3D289D2A8D2AF75C13D22A0
:0A0DA40000007F057E49DEFEDFFC43
:010DAE002222
:080D0B008F518E508D4F8C4E6C
:100D1300E4F552F553F554F555784E74FF12046912
:0B0D2300EC4D4E4F6005120DA480EE59
:010D2E0022A2
:0C0D97007F117ED07D1BDDFEDEFCDFFA4C
:010DA300222D
:03000300020C4CA0
:100C4C00C0E0C0F0C083C082C0D075D000C000C06E
:100C5C0001C002C003C004C005C006C0071207C90A
:100C6C00D007D006D005D004D003D002D001D000DC
:0B0C7C00D0D0D082D083D0F0D0E03286
:1005A700EF120487064201064602064A040654145F
:1005B700065E15066816066817066818066819069F
:1005C700681A06681B06681C06681D06681E06680A
:1005D7001F06682006682106682206682306682425
:1005E7000668250668260668270668280668290615
:1005F700682A06682B06682C06682D06682E06688A
:100607002F06683006683106683206683306683494
:100617000668350668360668370668380668390694
:10062700683A06683B06683C06683D06683E066809
:100637003F06684006684100000671D2978006C2EF
:10064700978002D2967BFF7A0A7999801AC2967BA5
:10065700FF7A0A79A38010D2957BFF7A0A79A38063
:0B066700067BFF7A0A79A3120D2F22F8
:03000B00020DC51E
:0A0DC500758A00758C2875C13D3257
:1000260000000000000000000000000000000000CA
:10003600000000006E692068616F207869616F209A
:1000460062750000000000006E696E2068616F2016
:100056007869616F20627500000000007869616F41
:10006600206275207869616F2062750000000000CB
:10007600000000000000000000000000000000007A
:10008600000000000000000000000000000000006A
:10009600000000000000000000000000000000005A
:1000A600000000000000000000000000000000004A
:100406000000000000000000000102041415161789
:1004160018191A000000000000000000000000008B
:1004260000000000000000000000000000000000C6
:0A04360000000000000000000000BC
:100C0B00D2B57F057E007D007C00120D0BC2B57F37
:100C1B00057E007D007C00120D0BD2B57F057E009A
:100C2B007D007C00120D0BC2A17F057E007D007C38
:100C3B0000120D0BD2A17F057E007D007C00020D02
:010C4B000B9D
:100868007F06120DBA7D357F17120DAF7F0A7E0005
:100878007D007C00120D0B7F06120DBA7D037F8967
:10088800120DAF7F057E007D007C00120D0B7D43AD
:100898007FCF120DAF7F057E007D007C00120D0B0F
:1008A8007D027FCB120DAF7D0A7F11120DAFE4FDE3
:1008B8007F1E120DAF7D3F7F19120DAF7D487F1B44
:1008C800120DAF7D1F7F1D120DAF7F0A7E007D00C8
:1008D8007C00120D0B7D047FCD120DAF7F057E00CD
:1008E8007D007C00120D0BE4FD7FB9120DAF7D4F2A
:0C08F8007FCF120DAF7DFF7F6F020DAFB0
:100B1300120868E4FD7FBD120DAF7D487F17120DEB
:100B2300AF7F0A7E007D007C00120D0B7D807F3C31
:100B3300120DAF7D077F3E120DAF7DFF7F38120D83
:100B4300AF7D077F3A120DAFE4FD7F40120DAF7DFD
:100B5300087F42120DAFE4FD7F44120DAF7D087F85
:0F0B630046120DAF7F017E007D007C00020D0B5E
:1007C900E4F545C2A87F2B120DBA7858A607E4FDB7
:1007D9007F29120DAFE4FD7F02120DAF7858E63084
:1007E900E4377FB2120DBAEF6421702D7FBF120D6D
:1007F900BAEF643570237FBA120DBA8F457E00D3E4
:10080900EF9400748094804010D3EF940474809422
:1008190080500678577610800478577611E4FD7F6A
:100829002B120DAFE4FD7F1C120DAFE4FD7F2912E1
:100839000DAFE4FD7F02120DAFE4FD7F2B120DAF6A
:10084900E4FD7FBA120DAFE4FD7FBC120DAF7D014F
:0E0859007F08120DAFE4FD7F08120DAFD2A88C
:01086700226E
:100B7200E4F547F548F547C3E5479405748094804A
:100B82005040120DCF7F327E007D007C00120D0B93
:100B920012071FEF700280117F0A7E007D007C0029
:100BA200120D0B120904EF7010120C0B7F327E0033
:100BB2007D007C00120D0B800575480180040547FD
:040BC20080B5AF4803
:010BC600220C
:100C8700E4F54DF54CC3E54C940A74809480501EEE
:100C97007FB2120DBAEF64217005754D01800F7F89
:100CA7000A7E007D007C00120D0B054C80D7AF4DEE
:010CB700221A
:030DCF00020B1301
:10090400C2A87D437F35120DAF7D097F1C120DAF48
:100914007D207FBD120DAF7D017F08120DAF7F01D9
:100924007E007D007C00120D0BE4FD7F08120DAFEC
:100934007F017E007D007C00120D0B120C87EF708E
:1009440002FF227D0B7F1C120DAF7DFF7FB2120DC3
:10095400AF7F017E007D007C00120D0B7D067F378A
:10096400120DAF7F017E007D007C00120D0B7D0611
:100974007F37120DAF7F057E007D007C00120D0BCA
:100984007D107F29120DAFE4FD7FBD120DAFD2A8FB
:030994007F0122BE
:10071F00754A01E4F549C3E54994327480948040E9
:10072F00030207C6120C87EF7005F54A0207C6E5EC
:10073F004990040E93FD7FC1120DAFE4FD7FC312EC
:10074F000DAF7D047F08120DAF7F017E007D007C11
:10075F0000120D0BE4FD7F08120DAF7F017E007DAF
:10076F00007C00120D0BE4F54BC3E54B9414748021
:10077F009480502975F014E549A42426F582E5F0FC
:10078F003400F583E582254BF582E43583F583E468
:10079F0093FD60097F05120DAF054B80CCAD4B7FEC
:1007AF00B9120DAF7DFF7FB2120DAF7D047F3712EF
:0907BF000DAF0549020725AF4A00
:0107C800220E
:050006007FC5020DBAE8
:0B0DAF00908100EFF0908000EDF0223A
:0B0DBA00908100EFF0908000E0FF222D
:070D8F000211258001100094
:100CE400759850758920AE11AF12AB07AA06E4F9C6
:100CF400F8FF7EE1FDFC120BC71204598F8B8F8D18
:070D0400D28ED2ACD2AF2267
:06000E0014F9120440FF8A
:0E001400C2ACC2998F993099FDC299D2AC222C
:100D2F008B478A488949AB47AA48A94912044060B2
:0F0D3F000D0549E5497002054812000E80E822B3
:100D4E008B478A488949AB47AA48A9491204406093
:0F0D5E000D0549E5497002054812000E80E82294
:03002300020AA42A
:100AA400C0E0C0F0C083C082C0D075D00830985474
:100AB400C29874132510F8A6990510C3E510943153
:100AC4007480948040127E007F327D007B007A0027
:100AD40079131204AD751000C3E510940374809467
:100AE40080402174132510F8E664F87017741225F9
:100AF40010F8E664F8700D74112510F8E664F870C7
:0F0B04000375C760D0D0D082D083D0F0D0E0325C
:030000000209975B
:0C099700787FE4F6D8FD7581590209DE76
:10044000BB010689828A83E0225002E722BBFE02BA
:09045000E32289828A83E49322ED
:100BC700C2D5E830E70FB2D5E4C39BFBE49AFAE459
:100BD70099F9E498F8EC30E717B2D5120BFD120536
:100BE70015E4C39BFBE49AFAE499F9E498F88003C7
:100BF70012051530D50DE4C39FFFE49EFEE49DFD6D
:040C0700E49CFC224B
:0E045900C3E49FFFE49EFEE49DFDE49CFC22B4
:100467007401FF3395E0FEFDFC080808E6CF2FF680
:1004770018E6CE3EF618E6CD3DF618E6CC3CF62259
:10048700D083D082F8E4937012740193700DA3A304
:1004970093F8740193F5828883E473740293686018
:0604A700EFA3A3A380DF18
:1004AD00EF4E6012EF60010EEDBB010B89828A8366
:1004BD00F0A3DFFCDEFA2289F05007F709DFFCA973
:0C04CD00F022BBFEFCF309DFFCA9F022CA
:1009A300020672E493A3F8E493A34003F68001F2F2
:1009B30008DFF48029E493A3F85407240CC8C33355
:1009C300C4540F4420C8834004F456800146F6DF24
:1009D300E4800B0102040810204080900D89E47E1E
:1009E300019360BCA3FF543F30E509541FFEE49319
:1009F300A360010ECF54C025E060A840B8E493A3E0
:100A0300FAE493A3F8E493A3C8C582C8CAC583CA0A
:100A1300F0A3C8C582C8CAC583CADFE9DEE780BEC2
:010D9600005C
:1004D90075F008758200EF2FFFEE33FECD33CDCCDA
:1004E90033CCC58233C5829BED9AEC99E58298405D
:1004F9000CF582EE9BFEED9AFDEC99FC0FD5F0D63A
:10050900E4CEFBE4CDFAE4CCF9A88222B800C1B963
:100519000059BA002DEC8BF084CFCECDFCE5F0CBA1
:10052900F97818EF2FFFEE33FEED33FDEC33FCEBDA
:1005390033FB10D703994004EB99FB0FD8E5E4F995
:10054900FA227818EF2FFFEE33FEED33FDEC33FC82
:10055900C933C910D7059BE99A4007EC9BFCE99A76
:10056900F90FD8E0E4C9FAE4CCFB2275F010EF2FBB
:10057900FFEE33FEED33FDCC33CCC833C810D707BB
:100589009BEC9AE899400AED9BFDEC9AFCE899F8F6
:0E0599000FD5F0DAE4CDFBE4CCFAE4C8F92289
:00000001FF
