:100956003C473ECED2CAC7D0A1B2BCA3ACBADCB823
:10096600DFD0CBCEAAC4FAB7FECEF1003C473ED5C7
:10097600D2D0A1B2BCD3D0CAB2C3B4CAC2C2F00DDF
:100986000A003C473ED4DAB5C40D0A003C473ECEC9
:10099600D2D4DA0D0A003C473ED0A1B2BCD4DAB5B7
:1009A600C40D0A003C473ECFD6D4DACAC7CFC2CE62
:0909B600E7D2BBB5E30D0A000015
:06000E000157000156003D
:1009BF00E4F5467592FFF591C294C295C296C2971F
:1009CF00120CB5120C19120B6C120C45E47857F679
:1009DF007BFF7A097956120C6C7857E61460FA246B
:1009EF00F1601824DF60F2243170207857760112FD
:1009FF000A7FEF70E47857763180DE12000678595F
:100A0F00EFF612057BE47857F680CEE47857F68040
:010A1F00C80E
:100CB500B2C2120CDFB2C2120CDFB2C2120CDFB22A
:0C0CC500C2120CDFB2C2120CDFB2C2225D
:100C19007580FFE4F59075A0FF75B0FF75C0FF53AF
:100C29008E7F438901F58A758C28C28DD28CD2A911
:0C0C3900C2C3D289D2A8D2AF75C13D223F
:0A0CEC0000007F057E49DEFEDFFCFC
:010CF60022DB
:080C91008F518E508D4F8C4EE7
:100C9900E4F552F553F554F555784E74FF1204698D
:0B0CA900EC4D4E4F6005120CEC80EE8D
:010CB400221D
:0C0CDF007F117ED07D1BDDFEDEFCDFFA05
:010CEB0022E6
:03000300020BAD40
:100BAD00C0E0C0F0C083C082C0D075D000C000C00E
:100BBD0001C002C003C004C005C006C0071206FC78
:100BCD00D007D006D005D004D003D002D001D0007C
:0B0BDD00D0D0D082D083D0F0D0E03226
:10057B00EF120487061601062002062A040634141D
:10058B00063E15064816064817064818064819066B
:10059B00481A06481B06481C06481D06481E0648F6
:1005AB001F064820064821064822064823064824F1
:1005BB0006482506482606482706482806482906E1
:1005CB00482A06482B06482C06482D06482E064876
:1005DB002F06483006483106483206483306483461
:1005EB000648350648360648370648380648390661
:1005FB00483A06483B06483C06483D06483E0648F6
:10060B003F06484006484100000651D2977BFF7ACF
:10061B00097972802EC2977BFF7A0979888024D260
:10062B00967BFF7A097992801AC2967BFF7A0979B9
:10063B009C8010D2957BFF7A0979AA80067BFF7A82
:07064B000979BE120C6C22BC
:03000B00020D0DD6
:0A0D0D00758A00758C2875C13D320F
:1000260000000000000000000000000000000000CA
:10003600000000006E692068616F207869616F209A
:1000460062750000000000006E696E2068616F2016
:100056007869616F20627500000000007869616F41
:10006600206275207869616F2062750000000000CB
:100076007869616F206275000000000000000000D2
:10008600000000007869616E207A6169206A692043
:100096006469616E000000000000000000000000BE
:1000A600000000000000000000000000000000004A
:1000B600000000000000000000000000000000003A
:1000C600000000000000000000000000000000002A
:1000D600000000000000000000000000000000001A
:100406000000000000000000000102041415161789
:1004160018191A000000000000000000000000008B
:1004260000000000000000000000000000000000C6
:0A04360000000000000000000000BC
:100B6C00D2B57F057E007D007C00120C91C2B57F52
:100B7C00057E007D007C00120C91D2B57F057E00B5
:100B8C007D007C00120C91C2A17F057E007D007C53
:100B9C0000120C91D2A17F057E007D007C00020C1E
:010BAC0091B7
:10079B007F06120D027D357F17120CF77F0A7E0044
:1007AB007D007C00120C917F06120D027D037F8968
:1007BB00120CF77F057E007D007C00120C917D43AF
:1007CB007FCF120CF77F057E007D007C00120C9111
:1007DB007D027FCB120CF77D0A7F11120CF7E4FD23
:1007EB007F1E120CF77D3F7F19120CF77D487F1B84
:1007FB00120CF77D1F7F1D120CF77F0A7E007D0008
:10080B007C00120C917D047FCD120CF77F057E00CE
:10081B007D007C00120C91E4FD7FB9120CF77D4F2B
:0C082B007FCF120CF77DFF7F6F020CF7EF
:100A200012079BE4FD7FBD120CF77D487F17120C67
:100A3000F77F0A7E007D007C00120C917D807F3C58
:100A4000120CF77D077F3E120CF77DFF7F38120CEA
:100A5000F77D077F3A120CF7E4FD7F40120CF77D1B
:100A6000087F42120CF7E4FD7F44120CF77D087FEB
:0F0A700046120CF77F017E007D007C00020C9186
:1006FC00E4F545C2A87F2B120D027858A607E4FD3D
:10070C007F29120CF7E4FD7F02120CF77858E630C3
:10071C00E4377FB2120D02EF6421702D7FBF120DF2
:10072C0002EF643570237FBA120D028F457E00D321
:10073C00EF9400748094804010D3EF9404748094F0
:10074C0080500678577610800478577611E4FD7F38
:10075C002B120CF7E4FD7F1C120CF7E4FD7F291221
:10076C000CF7E4FD7F02120CF7E4FD7F2B120CF763
:10077C00E4FD7FBA120CF7E4FD7FBC120CF77D018F
:0E078C007F08120CF7E4FD7F08120CF7D2A8CC
:01079A00223C
:100A7F00E4F547F548F547C3E5479405748094803E
:100A8F00504012001C7F327E007D007C00120C91C2
:100A9F00120652EF700280117F0A7E007D007C00EB
:100AAF00120C91120837EF7010120B6C7F327E0010
:100ABF007D007C00120C918005754801800405476C
:040ACF0080B5AF48F7
:010AD3002200
:100BE800E4F54DF54CC3E54C940A74809480501E8E
:100BF8007FB2120D02EF64217005754D01800F7FE1
:100C08000A7E007D007C00120C91054C80D7AF4D08
:010C180022B9
:03001C00020A20B5
:10083700C2A87D437F35120CF77D097F1C120CF788
:100847007D207FBD120CF77D017F08120CF77F0119
:100857007E007D007C00120C91E4FD7F08120CF7EE
:100867007F017E007D007C00120C91120BE8EF7077
:1008770002FF227D0B7F1C120CF77DFF7FB2120C4B
:10088700F77F017E007D007C00120C917D067F378B
:10089700120CF77F017E007D007C00120C917D0613
:1008A7007F37120CF77F057E007D007C00120C91CC
:1008B7007D107F29120CF7E4FD7FBD120CF7D2A83B
:0308C7007F01228C
:10065200754A01E4F549C3E54994327480948040B7
:10066200030206F9120BE8EF7005F54A0206F9E5F6
:100672004990040E93FD7FC1120CF7E4FD7FC31273
:100682000CF77D047F08120CF77F017E007D007C51
:1006920000120C91E4FD7F08120CF77F017E007DB1
:1006A200007C00120C91E4F54BC3E54B941474806A
:1006B2009480502975F014E549A42426F582E5F0CA
:1006C2003400F583E582254BF582E43583F583E436
:1006D20093FD60097F05120CF7054B80CCAD4B7F73
:1006E200B9120CF77DFF7FB2120CF77D047F37122F
:0906F2000CF70549020658AF4A55
:0106FB0022DC
:050006007FC5020D02A0
:0B0CF700908100EFF0908000EDF022F3
:0B0D0200908100EFF0908000E0FF22E5
:07001400021125800110001C
:100C4500759850758920AE11AF12AB07AA06E4F965
:100C5500F8FF7EE1FDFC120B281204598F8B8F8D56
:070C6500D28ED2ACD2AF2207
:0E0CD100C2ACC2998F993099FDC299D2AC2263
:100C6C008B478A488949AB47AA48A9491204406076
:100C7C00130549E5497002054814F9120440FF12A6
:050C8C000CD180E22202
:03002300020AD4FA
:100AD400C0E0C0D075D008309845C2987413251072
:100AE400F8A6990510C3E5109431748094804003EE
:100AF400751000C3E510940374809480402174132E
:100B04002510F8E664F8701774122510F8E664F8F6
:100B1400700D74112510F8E664F8700375C760D081
:040B2400D0D0E0321B
:030000000208CA29
:0C08CA00787FE4F6D8FD75815902091111
:10044000BB010689828A83E0225002E722BBFE02BA
:09045000E32289828A83E49322ED
:100B2800C2D5E830E70FB2D5E4C39BFBE49AFAE4F8
:100B380099F9E498F8EC30E717B2D5120B5E120475
:100B4800E9E4C39BFBE49AFAE499F9E498F8800392
:100B58001204E930D50DE4C39FFFE49EFEE49DFD39
:040B6800E49CFC22EB
:0E045900C3E49FFFE49EFEE49DFDE49CFC22B4
:100467007401FF3395E0FEFDFC080808E6CF2FF680
:1004770018E6CE3EF618E6CD3DF618E6CC3CF62259
:10048700D083D082F8E4937012740193700DA3A304
:1004970093F8740193F5828883E473740293686018
:0604A700EFA3A3A380DF18
:1008D6000209BFE493A3F8E493A34003F68001F270
:1008E60008DFF48029E493A3F85407240CC8C33323
:1008F600C4540F4420C8834004F456800146F6DFF2
:10090600E4800B010204081020408090000EE47E73
:10091600019360BCA3FF543F30E509541FFEE493E6
:10092600A360010ECF54C025E060A840B8E493A3AD
:10093600FAE493A3F8E493A3C8C582C8CAC583CAD8
:10094600F0A3C8C582C8CAC583CADFE9DEE780BE90
:01001B0000E4
:1004AD0075F008758200EF2FFFEE33FECD33CDCC06
:1004BD0033CCC58233C5829BED9AEC99E582984089
:1004CD000CF582EE9BFEED9AFDEC99FC0FD5F0D666
:1004DD00E4CEFBE4CDFAE4CCF9A88222B800C1B990
:1004ED000059BA002DEC8BF084CFCECDFCE5F0CBCE
:1004FD00F97818EF2FFFEE33FEED33FDEC33FCEB07
:10050D0033FB10D703994004EB99FB0FD8E5E4F9C1
:10051D00FA227818EF2FFFEE33FEED33FDEC33FCAE
:10052D00C933C910D7059BE99A4007EC9BFCE99AA2
:10053D00F90FD8E0E4C9FAE4CCFB2275F010EF2FE7
:10054D00FFEE33FEED33FDCC33CCC833C810D707E7
:10055D009BEC9AE899400AED9BFDEC9AFCE899F822
:0E056D000FD5F0DAE4CDFBE4CCFAE4C8F922B5
:00000001FF
