:100A9C003C473ECED2CAC7D0A1B2BCA3ACBADCB8DC
:100AAC00DFD0CBCEAAC4FAB7FECEF1003C473EC78E
:100ABC00B0B7BDB0DFC2EDCFDF003C473EC7B0B72B
:100ACC00BDC2A5CCDD003C473EC7B0B7BDD3D0D529
:100ADC00CFB0ADCEEF003C473EBCECB2E2B5BDC4EE
:100AEC00FAD2D1CBA4B5B9A3ACB0B4CFC2B0B4BC1C
:100AFC00FCC8A1CFFB003C473ED0A1B2BCD4DAB5B8
:100B0C00C40D0A003C473ED4DAB5C40D0A003C477C
:080B1C003ECED2D4DA0D0A002E
:100CA8000172000143002032100000000000000023
:100CB800000000000000000000000000000000002C
:100CC800000000000000000000000000000000001C
:0E0CD800000000000000000000000001426467
:10067700E4F560F561F5627592FFF591C294C29554
:10068700C296C297120EAB120E0F120D35120E3B09
:10069700E47872F67BFF7A0A799C120E6274482519
:1006A70044F8E624CE60331460561460792403605E
:1006B700030207547E007F147D007B007A007910C7
:1006C70012057D7BFF7A0A79B812000E78107C003C
:1006D7007D007BFF7A0A79B880707E007F147D00E9
:1006E7007B007A00791012057D7BFF7A0A79C612A2
:1006F700000E78107C007D007BFF7A0A79C6804A5D
:100707007E007F147D007B007A00791012057D7BC7
:10071700FF7A0A79D212000E78107C007D007BFFE9
:100727007A0A79D280247E007F147D007B007A00CC
:10073700791012057D7BFF7A0A79E212000E781094
:100747007C007D007BFF7A0A79E21205107872E659
:100757001470030206A424F1601F24DF700302064D
:10076700A42431702578727601120C53EF600302CE
:1007770006A4787276310206A41200067874EFF6A2
:10078700120DE2E47872F60206A4E47872F6020625
:01079700A4BD
:100EAB00B2C2120ED5B2C2120ED5B2C2120ED5B24A
:0C0EBB00C2120ED5B2C2120ED5B2C22275
:100E0F007580FFE4F59075A0FF75B0FF75C0FF53B7
:100E1F008E7F438901F58A758C28C28DD28CD2A919
:0C0E2F00C2C3D289D2A8D2AF75C13D2247
:0A0EE20000007F057E49DEFEDFFC04
:010EEC0022E3
:080E87008F6D8E6C8D6B8C6A7F
:100E8F00E4F56EF56FF570F571786A74FF12055F12
:0B0E9F00EC4D4E4F6005120EE280EE9D
:010EAA002225
:0C0ED5007F117ED07D1BDDFEDEFCDFFA0D
:010EE10022EE
:03000300020D7675
:100D7600C0E0C0F0C083C082C0D075D000C000C043
:100D860001C002C003C004C005C006C00712084265
:100D9600D007D006D005D004D003D002D001D000B1
:0B0DA600D0D0D082D083D0F0D0E0325B
:100DE200EF24FE601224FE60182403701FD2977B4A
:100DF200FF7A0B79028012C2977BFF7A0B791080FF
:0D0E020008D2967BFF7A0B791A120E62223D
:03000B00020B9352
:100B9300C0E0C0F0C083C082C0D075D000C000C028
:100BA30001C002C003C004C005C006C007758A00A7
:100BB300758C2875C13D1542E542701AFB7A0079A0
:100BC30010120E627E007F147D007B007A00791084
:100BD30012057D754264D007D006D005D004D0033A
:100BE300D002D001D000D0D0D082D083D0F0D0E0DA
:010BF30032CF
:1000260000000000000000000000000000000000CA
:10003600000000006E692068616F207869616F209A
:1000460062750000000000007869616F206275200B
:100056007869616F20627500000000007869616F41
:100066002062750000000000000000000000000093
:10007600000000000000000000000000000000007A
:10008600000000000000000000000000000000006A
:10009600000000000000000000000000000000005A
:1000A600000000000000000000000000000000004A
:100406000000000000000000000102041415161789
:1004160018191A000000000000000000000000008B
:1004260000000000000000000000000000000000C6
:0A04360000000000000000000000BC
:100D3500D2B57F057E007D007C00120E87C2B57F8F
:100D4500057E007D007C00120E87D2B57F057E00F2
:100D55007D007C00120E87C2A17F057E007D007C90
:100D650000120E87D2A17F057E007D007C00020E59
:010D750087F6
:1008E1007F06120EF87D357F17120EED7F0A7E000E
:1008F1007D007C00120E877F06120EF87D037F8932
:10090100120EED7F057E007D007C00120E877D4377
:100911007FCF120EED7F057E007D007C00120E87D9
:100921007D027FCB120EED7D0A7F11120EEDE4FDEB
:100931007F1E120EED7D3F7F19120EED7D487F1B4C
:10094100120EED7D1F7F1D120EED7F0A7E007D00D0
:100951007C00120E877D047FCD120EED7F057E0097
:100961007D007C00120E87E4FD7FB9120EED7D4FF4
:0C0971007FCF120EED7DFF7F6F020EEDB8
:100BF4001208E1E4FD7FBD120EED7D487F17120E51
:100C0400ED7F0A7E007D007C00120E877D807F3C94
:100C1400120EED7D077F3E120EED7DFF7F38120E22
:100C2400ED7D077F3A120EEDE4FD7F40120EED7D5F
:100C3400087F42120EEDE4FD7F44120EED7D087F25
:0F0C440046120EED7F017E007D007C00020E87C0
:10084200E4F55CC2A87F2B120EF87873A607E4FDCC
:100852007F29120EEDE4FD7F02120EED7873E63071
:10086200E4377FB2120EF8EF6421702D7FBF120EB3
:10087200F8EF643570237FBA120EF88F5C7E00D3D6
:10088200EF9400748094804010D3EF9404748094A9
:1008920080500678727610800478727611E4FD7FBB
:1008A2002B120EEDE4FD7F1C120EEDE4FD7F2912EA
:1008B2000EEDE4FD7F02120EEDE4FD7F2B120EED34
:1008C200E4FD7FBA120EEDE4FD7FBC120EED7D0158
:0E08D2007F08120EEDE4FD7F08120EEDD2A895
:0108E00022F5
:100C5300E4F563F564F563C3E563940574809480F8
:100C63005040120F037F327E007D007C00120E87FE
:100C7300120798EF700280117F0A7E007D007C00CE
:100C8300120E8712097DEF7010120D357F327E0030
:100C93007D007C00120E8780057564018004056366
:040CA30080B5AF6405
:010CA700222A
:100DB100E4F569F568C3E568940A74809480501E6F
:100DC1007FB2120EF8EF64217005756901800F7F03
:100DD1000A7E007D007C00120E87056880D7AF690E
:010DE10022EF
:030F0300020BF4EA
:10097D00C2A87D437F35120EED7D097F1C120EED51
:10098D007D207FBD120EED7D017F08120EED7F01E2
:10099D007E007D007C00120E87E4FD7F08120EEDB7
:1009AD007F017E007D007C00120E87120DB1EF706D
:1009BD0002FF227D0B7F1C120EED7DFF7FB2120E0A
:1009CD00ED7F017E007D007C00120E877D067F3756
:1009DD00120EED7F017E007D007C00120E877D06DC
:1009ED007F37120EED7F057E007D007C00120E8795
:1009FD007D107F29120EEDE4FD7FBD120EEDD2A804
:030A0D007F012244
:10079800756601E4F565C3E565943274809480401C
:1007A8000302083F120DB1EF7005F56602083FE538
:1007B8006590040E93FD7FC1120EEDE4FD7FC31218
:1007C8000EED7D047F08120EED7F017E007D007C1A
:1007D80000120E87E4FD7F08120EED7F017E007D7A
:1007E800007C00120E87E4F567C3E56794147480F3
:1007F8009480502975F014E565A42426F582E5F067
:100808003400F583E5822567F582E43583F583E4D2
:1008180093FD60097F05120EED056780CCAD677FFB
:10082800B9120EED7DFF7FB2120EED7D047F3712F7
:090838000EED056502079EAF6696
:010841002294
:050006007FC5020EF8A9
:0B0EED00908100EFF0908000EDF022FB
:0B0EF800908100EFF0908000E0FF22EE
:0A0CE600024525800144000147008B
:100E3B00759850758920AE45AF46AB07AA06E4F905
:100E4B00F8FF7EE1FDFC120CF112054F8F8B8F8D9D
:070E5B00D28ED2ACD2AF220F
:0E0EC700C2ACC2998F993099FDC299D2AC226B
:100E62008B638A648965AB63AA64A96512053660DF
:100E7200130565E5657002056414F9120536FF1263
:050E82000EC780E22212
:03002300020B24A9
:100B2400C0E0C0F0C083C082C0D075D008309854F3
:100B3400C29874482544F8A6990544C3E544943101
:100B44007480948040127E007F327D007B007A00A6
:100B5400794812057D754400C3E544940374809478
:100B640080402174482544F8E664F87017744725DA
:100B740044F8E664F8700D74462544F8E664F870A9
:0F0B84000375C760D0D0D082D083D0F0D0E032DC
:03000000020A10E1
:0C0A1000787FE4F6D8FD758174020A5767
:10044000E709F608DFFA8046E709F208DFFA803E9E
:1004500088828C83E709F0A3DFFA8032E309F6088B
:10046000DFFA8078E309F208DFFA807088828C83F3
:10047000E309F0A3DFFA806489828A83E0A3F608A7
:10048000DFFA805889828A83E0A3F208DFFA804C81
:1004900080D280FA80C680D4806980F28033801058
:1004A00080A680EA809A80A880DA80E280CA8033C1
:1004B00089828A83ECFAE493A3C8C582C8CCC58339
:1004C000CCF0A3C8C582C8CCC583CCDFE9DEE78009
:1004D0000D89828A83E493A3F608DFF9ECFAA9F088
:1004E000EDFB2289828A83ECFAE0A3C8C582C8CCDE
:1004F000C583CCF0A3C8C582C8CCC583CCDFEADEF7
:10050000E880DB89828A83E493A3F208DFF980CC58
:1005100088F0EF60010E4E60C388F0ED2402B40451
:100520000050B9F582EB2402B4040050AF232345F8
:0605300082239004907389
:10053600BB010689828A83E0225002E722BBFE02C3
:09054600E32289828A83E49322F6
:100CF100C2D5E830E70FB2D5E4C39BFBE49AFAE42E
:100D010099F9E498F8EC30E717B2D5120D271205DE
:100D1100E5E4C39BFBE49AFAE499F9E498F88003CB
:100D21001205E530D50DE4C39FFFE49EFEE49DFD71
:040D3100E49CFC2220
:0E054F00C3E49FFFE49EFEE49DFDE49CFC22BD
:10055D007401FF3395E0FEFDFC080808E6CF2FF689
:10056D0018E6CE3EF618E6CD3DF618E6CC3CF62262
:10000E00E4FFFE120536600C0FEF70010E09E97069
:05001E00F20A80EF2250
:10057D00EF4E6012EF60010EEDBB010B89828A8395
:10058D00F0A3DFFCDEFA2289F05007F709DFFCA9A2
:0C059D00F022BBFEFCF309DFFCA9F022F9
:100A1C00020677E493A3F8E493A34003F68001F273
:100A2C0008DFF48029E493A3F85407240CC8C333DB
:100A3C00C4540F4420C8834004F456800146F6DFAA
:100A4C00E4800B0102040810204080900CA8E47E86
:100A5C00019360BCA3FF543F30E509541FFEE4939F
:100A6C00A360010ECF54C025E060A840B8E493A366
:100A7C00FAE493A3F8E493A3C8C582C8CAC583CA91
:100A8C00F0A3C8C582C8CAC583CADFE9DEE780BE49
:010CF0000003
:1005A90075F008758200EF2FFFEE33FECD33CDCC09
:1005B90033CCC58233C5829BED9AEC99E58298408C
:1005C9000CF582EE9BFEED9AFDEC99FC0FD5F0D669
:1005D900E4CEFBE4CDFAE4CCF9A88222B800C1B993
:1005E9000059BA002DEC8BF084CFCECDFCE5F0CBD1
:1005F900F97818EF2FFFEE33FEED33FDEC33FCEB0A
:1006090033FB10D703994004EB99FB0FD8E5E4F9C4
:10061900FA227818EF2FFFEE33FEED33FDEC33FCB1
:10062900C933C910D7059BE99A4007EC9BFCE99AA5
:10063900F90FD8E0E4C9FAE4CCFB2275F010EF2FEA
:10064900FFEE33FEED33FDCC33CCC833C810D707EA
:100659009BEC9AE899400AED9BFDEC9AFCE899F825
:0E0669000FD5F0DAE4CDFBE4CCFAE4C8F922B8
:00000001FF
