:1008F2003C473ECED2CAC7D0A1B2BCA3ACBADCB888
:10090200DFD0CBCEAAC4FAB7FECEF1003C473EC739
:10091200B0B7BDB0DFC2EDCFDF003C473E003C4781
:100922003EC7B0B7BDD3D0D5CFB0ADCEEF003C47B8
:100932003ED5D2D0A1B2BCD3D0CAB2C3B4CAC2C20D
:10094200F00D0A003C473ED4DAB5C40D0A003C471C
:100952003ECED2D4DA0D0A003C473ED0A1B2BCD47E
:10096200DAB5C40D0A003C473ECFD6D4DACAC7CFA7
:0A097200C2CEE7D2BBB5E30D0A00C8
:06000E000158000157003B
:10073A00E4F546F5477592FFF591C294C295C296C3
:10074A00C297120C59120BBD120B10120BE9E47866
:10075A0058F67BFF7A0879F2120C10120C838F4636
:10076A00E54624CE600F146014240270247BFF7ABD
:10077A0009790E800E7BFF7A09791C80067BFF7A45
:10078A00097920120C107F207E4E7D007C00120C0D
:10079A00357858E61460C424F1601824DF60BC245C
:1007AA00317020785876011209DBEF70AE785876EE
:1007BA003180A8120006785AEFF6120A84E47858B3
:0907CA00F68098E47858F680925C
:100C5900B2C2120C91B2C2120C91B2C2120C91B270
:0C0C6900C2120C91B2C2120C91B2C22255
:100BBD007580FFE4F59075A0FF75B0FF75C0FF530C
:100BCD008E7F438901F58A758C28C28DD28CD2A96E
:0C0BDD00C2C3D289D2A8D2AF75C13D229C
:0A0C9E0000007F057E49DEFEDFFC4A
:010CA8002229
:080C35008F528E518D508C4F3F
:100C3D00E4F553F554F555F556784F74FF120469E4
:0B0C4D00EC4D4E4F6005120C9E80EE37
:010C58002279
:0C0C91007F117ED07D1BDDFEDEFCDFFA53
:010C9D002234
:03000300020B519C
:100B5100C0E0C0F0C083C082C0D075D000C000C06A
:100B610001C002C003C004C005C006C0071205FFD2
:100B7100D007D006D005D004D003D002D001D000D8
:0B0B8100D0D0D082D083D0F0D0E03282
:100A8400EF24FE601924FE601F24F0602514602CFE
:100A940024147033D2977BFF7A0979308026C29769
:100AA4007BFF7A097946801CD2967BFF7A097950BC
:100AB4008012C2967BFF7A09795A8008D2957BFF0F
:080AC4007A097968120C102276
:03000B00020CBF25
:0A0CBF00758A00758C2875C13D325E
:1000260000000000000000000000000000000000CA
:10003600000000006E692068616F207869616F209A
:1000460062750000000000006E696E2068616F2016
:100056007869616F20627500000000007869616F41
:10006600206275207869616F2062750000000000CB
:100076007869616F206275000000000000000000D2
:10008600000000007869616E207A6169206A692043
:100096006469616E000000000000000000000000BE
:1000A600000000000000000000000000000000004A
:1000B600000000000000000000000000000000003A
:1000C600000000000000000000000000000000002A
:1000D600000000000000000000000000000000001A
:100406000000000000000000000102041415161789
:1004160018191A000000000000000000000000008B
:1004260000000000000000000000000000000000C6
:0A04360000000000000000000000BC
:100B1000D2B57F057E007D007C00120C35C2B57F0A
:100B2000057E007D007C00120C35D2B57F057E006D
:100B30007D007C00120C35C2A17F057E007D007C0B
:100B400000120C35D2A17F057E007D007C00020CD6
:010B5000356F
:10069E007F06120CB47D357F17120CA97F0A7E00DF
:1006AE007D007C00120C357F06120CB47D037F8911
:1006BE00120CA97F057E007D007C00120C357D4357
:1006CE007FCF120CA97F057E007D007C00120C35B9
:1006DE007D027FCB120CA97D0A7F11120CA9E4FDBD
:1006EE007F1E120CA97D3F7F19120CA97D487F1B1E
:1006FE00120CA97D1F7F1D120CA97F0A7E007D00A2
:10070E007C00120C357D047FCD120CA97F057E0076
:10071E007D007C00120C35E4FD7FB9120CA97D4FD3
:0C072E007FCF120CA97DFF7F6F020CA989
:10097C0012069EE4FD7FBD120CA97D487F17120C58
:10098C00A97F0A7E007D007C00120C357D807F3CA7
:10099C00120CA97D077F3E120CA97DFF7F38120C2B
:1009AC00A97D077F3A120CA9E4FD7F40120CA97DAA
:1009BC00087F42120CA9E4FD7F44120CA97D087F2C
:0F09CC0046120CA97F017E007D007C00020C35D5
:1005FF00E4F545C2A87F2B120CB47859A607E4FD89
:10060F007F29120CA9E4FD7F02120CA97859E6305C
:10061F00E4377FB2120CB4EF6421702D7FBF120C40
:10062F00B4EF643570237FBA120CB48F457E00D3BC
:10063F00EF9400748094804010D3EF9404748094EE
:10064F0080500678587610800478587611E4FD7F34
:10065F002B120CA9E4FD7F1C120CA9E4FD7F2912BB
:10066F000CA9E4FD7F02120CA9E4FD7F2B120CA94B
:10067F00E4FD7FBA120CA9E4FD7FBC120CA97D0129
:0E068F007F08120CA9E4FD7F08120CA9D2A866
:01069D00223A
:1009DB00E4F548F549F548C3E548940574809480DF
:1009EB00504012001C7F327E007D007C00120C35C3
:1009FB00120555EF700280117F0A7E007D007C008E
:100A0B00120C351207D3EF7010120B107F327E00D1
:100A1B007D007C00120C358005754901800405486A
:040A2B0080B5AF499A
:010A2F0022A4
:100B8C00E4F54EF54DC3E54D940A74809480501EE7
:100B9C007FB2120CB4EF64217005754E01800F7F8B
:100BAC000A7E007D007C00120C35054D80D7AF4EBF
:010BBC002216
:03001C0002097C5A
:1007D300C2A87D437F35120CA97D097F1C120CA989
:1007E3007D207FBD120CA97D017F08120CA97F011A
:1007F3007E007D007C00120C35E4FD7F08120CA9FD
:100803007F017E007D007C00120C35120B8CEF7093
:1008130002FF227D0B7F1C120CA97DFF7FB2120CFD
:10082300A97F017E007D007C00120C357D067F3799
:10083300120CA97F017E007D007C00120C357D0621
:100843007F37120CA97F057E007D007C00120C35DA
:100853007D107F29120CA9E4FD7FBD120CA9D2A83B
:030863007F0122F0
:10055500754B01E4F54AC3E54A94327480948040B2
:10056500030205FC120B8CEF7005F54B0205FCE54B
:100575004A90040E93FD7FC1120CA9E4FD7FC312BE
:100585000CA97D047F08120CA97F017E007D007CEB
:1005950000120C35E4FD7F08120CA97F017E007D59
:1005A500007C00120C35E4F54CC3E54C94147480C2
:1005B5009480502975F014E54AA42426F582E5F0C7
:1005C5003400F583E582254CF582E43583F583E433
:1005D50093FD60097F05120CA9054C80CCAD4C7FBD
:1005E500B9120CA97DFF7FB2120CA97D047F3712C9
:0905F5000CA9054A02055BAF4B9D
:0105FE0022DA
:050006007FC5020CB4EF
:0B0CA900908100EFF0908000EDF02241
:0B0CB400908100EFF0908000E0FF2234
:07001400021125800110001C
:100BE900759850758920AE11AF12AB07AA06E4F9C2
:100BF900F8FF7EE1FDFC120ACC1204598F8B8F8D10
:070C0900D28ED2ACD2AF2263
:0E0C7500C2ACC2998F993099FDC299D2AC22BF
:0D0C8300C2ACC298AF993098FDC298D2ACB7
:010C90002241
:100C10008B488A49894AAB48AA49A94A12044060CC
:100C200013054AE54A7002054914F9120440FF12FF
:050C30000C7580E222BA
:03002300020A309E
:100A3000C0E0C0D075D008309845C2987413251016
:100A4000F8A6990510C3E510943174809480400392
:100A5000751000C3E51094037480948040217413D2
:100A60002510F8E664F8701774122510F8E664F89B
:100A7000700D74112510F8E664F8700375C760D026
:040A8000D0D0E032C0
:030000000208668D
:0C086600787FE4F6D8FD75815A0208ADD9
:10044000BB010689828A83E0225002E722BBFE02BA
:09045000E32289828A83E49322ED
:100ACC00C2D5E830E70FB2D5E4C39BFBE49AFAE455
:100ADC0099F9E498F8EC30E717B2D5120B0212042E
:100AEC00C3E4C39BFBE49AFAE499F9E498F8800315
:100AFC001204C330D50DE4C39FFFE49EFEE49DFDBC
:040B0C00E49CFC2247
:0E045900C3E49FFFE49EFEE49DFDE49CFC22B4
:100467007401FF3395E0FEFDFC080808E6CF2FF680
:1004770018E6CE3EF618E6CD3DF618E6CC3CF62259
:1008720002073AE493A3F8E493A34003F68001F25B
:1008820008DFF48029E493A3F85407240CC8C33387
:10089200C4540F4420C8834004F456800146F6DF56
:1008A200E4800B010204081020408090000EE47ED8
:1008B200019360BCA3FF543F30E509541FFEE4934B
:1008C200A360010ECF54C025E060A840B8E493A312
:1008D200FAE493A3F8E493A3C8C582C8CAC583CA3D
:1008E200F0A3C8C582C8CAC583CADFE9DEE780BEF5
:01001B0000E4
:1004870075F008758200EF2FFFEE33FECD33CDCC2C
:1004970033CCC58233C5829BED9AEC99E5829840AF
:1004A7000CF582EE9BFEED9AFDEC99FC0FD5F0D68C
:1004B700E4CEFBE4CDFAE4CCF9A88222B800C1B9B6
:1004C7000059BA002DEC8BF084CFCECDFCE5F0CBF4
:1004D700F97818EF2FFFEE33FEED33FDEC33FCEB2D
:1004E70033FB10D703994004EB99FB0FD8E5E4F9E8
:1004F700FA227818EF2FFFEE33FEED33FDEC33FCD5
:10050700C933C910D7059BE99A4007EC9BFCE99AC8
:10051700F90FD8E0E4C9FAE4CCFB2275F010EF2F0D
:10052700FFEE33FEED33FDCC33CCC833C810D7070D
:100537009BEC9AE899400AED9BFDEC9AFCE899F848
:0E0547000FD5F0DAE4CDFBE4CCFAE4C8F922DB
:00000001FF
