:100868003C473ECED2CAC7D0A1B2BCA3ACBADCB812
:10087800DFD0CBCEAAC4FAB7FECEF1003C473EC7C4
:10088800B0B7BDB0DFC2EDCFDF003C473EC7B0B761
:10089800BDC2A5CCDD003C473EC7B0B7BDD3D0D55F
:1008A800CFB0ADCEEF003C473ED5D2D0A1B2BCD33D
:1008B800D0CAB2C3B4CAC2C2F00D0A003C473ED483
:1008C800DAB5C40D0A003C473ECED2D4DA0D0A0090
:1008D8003C473ED0A1B2BCD4DAB5C40D0A003C47AF
:1008E8003ECFD6D4DACAC7CFC2CEE7D2BBB5E30D66
:0208F8000A00F4
:06000E0001590001580039
:10073A00E4F546F547F5487592FFF591C294C295DE
:10074A00C296C297120C63120BC7120B1A120BF342
:10075A00E47859F67BFF7A087968120C1A120C8D24
:10076A008F47E54724CE600F146014240270247B5F
:10077A00FF7A087984800E7BFF7A08799280067B5B
:10078A00FF7A08799E120C1A7F107E277D007C0062
:10079A00120C3F7859E61460C424F1601824DF6013
:1007AA00BC24317020785976011209E5EF70AE78D1
:1007BA0059763180A8120006785BEFF6120A8EE4A9
:0B07CA007859F68098E47859F6809288
:100C6300B2C2120C9BB2C2120C9BB2C2120C9BB248
:0C0C7300C2120C9BB2C2120C9BB2C22237
:100BC7007580FFE4F59075A0FF75B0FF75C0FF5302
:100BD7008E7F438901F58A758C28C28DD28CD2A964
:0C0BE700C2C3D289D2A8D2AF75C13D2292
:0A0CA80000007F057E49DEFEDFFC40
:010CB200221F
:080C3F008F538E528D518C5031
:100C4700E4F554F555F556F557785074FF120469D5
:0B0C5700EC4D4E4F6005120CA880EE23
:010C6200226F
:0C0C9B007F117ED07D1BDDFEDEFCDFFA49
:010CA700222A
:03000300020B5B92
:100B5B00C0E0C0F0C083C082C0D075D000C000C060
:100B6B0001C002C003C004C005C006C0071205FFC8
:100B7B00D007D006D005D004D003D002D001D000CE
:0B0B8B00D0D0D082D083D0F0D0E03278
:100A8E00EF24FE601924FE601F24F0602514602CF4
:100A9E0024147033D2977BFF7A0879AE8026C297E2
:100AAE007BFF7A0879C4801CD2967BFF7A0879CEB8
:100ABE008012C2967BFF7A0879D88008D2957BFF88
:080ACE007A0879E6120C1A22E5
:03000B00020CC91B
:0A0CC900758A00758C2875C13D3254
:1000260000000000000000000000000000000000CA
:10003600000000006E692068616F207869616F209A
:1000460062750000000000006E696E2068616F2016
:100056007869616F20627500000000007869616F41
:10006600206275207869616F2062750000000000CB
:100076007869616F206275000000000000000000D2
:10008600000000007869616E207A6169206A692043
:100096006469616E000000000000000000000000BE
:1000A600000000000000000000000000000000004A
:1000B600000000000000000000000000000000003A
:1000C600000000000000000000000000000000002A
:1000D600000000000000000000000000000000001A
:100406000000000000000000000102041415161789
:1004160018191A000000000000000000000000008B
:1004260000000000000000000000000000000000C6
:0A04360000000000000000000000BC
:100B1A00D2B57F057E007D007C00120C3FC2B57FF6
:100B2A00057E007D007C00120C3FD2B57F057E0059
:100B3A007D007C00120C3FC2A17F057E007D007CF7
:100B4A0000120C3FD2A17F057E007D007C00020CC2
:010B5A003F5B
:10069E007F06120CBE7D357F17120CB37F0A7E00CB
:1006AE007D007C00120C3F7F06120CBE7D037F89FD
:1006BE00120CB37F057E007D007C00120C3F7D4343
:1006CE007FCF120CB37F057E007D007C00120C3FA5
:1006DE007D027FCB120CB37D0A7F11120CB3E4FDA9
:1006EE007F1E120CB37D3F7F19120CB37D487F1B0A
:1006FE00120CB37D1F7F1D120CB37F0A7E007D008E
:10070E007C00120C3F7D047FCD120CB37F057E0062
:10071E007D007C00120C3FE4FD7FB9120CB37D4FBF
:0C072E007FCF120CB37DFF7F6F020CB375
:1009860012069EE4FD7FBD120CB37D487F17120C44
:10099600B37F0A7E007D007C00120C3F7D807F3C89
:1009A600120CB37D077F3E120CB37DFF7F38120C0D
:1009B600B37D077F3A120CB3E4FD7F40120CB37D82
:1009C600087F42120CB3E4FD7F44120CB37D087F0E
:0F09D60046120CB37F017E007D007C00020C3FB7
:1005FF00E4F545C2A87F2B120CBE785AA607E4FD7E
:10060F007F29120CB3E4FD7F02120CB3785AE63047
:10061F00E4377FB2120CBEEF6421702D7FBF120C36
:10062F00BEEF643570237FBA120CBE8F457E00D3A8
:10063F00EF9400748094804010D3EF9404748094EE
:10064F0080500678597610800478597611E4FD7F32
:10065F002B120CB3E4FD7F1C120CB3E4FD7F2912A7
:10066F000CB3E4FD7F02120CB3E4FD7F2B120CB32D
:10067F00E4FD7FBA120CB3E4FD7FBC120CB37D0115
:0E068F007F08120CB3E4FD7F08120CB3D2A852
:01069D00223A
:1009E500E4F549F54AF549C3E549940574809480D1
:1009F500504012001C7F327E007D007C00120C3FAF
:100A0500120555EF700280117F0A7E007D007C0083
:100A1500120C3F1207D5EF7010120B1A7F327E00B1
:100A25007D007C00120C3F8005754A018004054954
:040A350080B5AF4A8F
:010A3900229A
:100B9600E4F54FF54EC3E54E940A74809480501EDA
:100BA6007FB2120CBEEF64217005754F01800F7F76
:100BB6000A7E007D007C00120C3F054E80D7AF4FA9
:010BC600220C
:03001C0002098650
:1007D500C2A87D437F35120CB37D097F1C120CB373
:1007E5007D207FBD120CB37D017F08120CB37F0104
:1007F5007E007D007C00120C3FE4FD7F08120CB3E7
:100805007F017E007D007C00120C3F120B96EF707D
:1008150002FF227D0B7F1C120CB37DFF7FB2120CF1
:10082500B37F017E007D007C00120C3F7D067F3783
:10083500120CB37F017E007D007C00120C3F7D060B
:100845007F37120CB37F057E007D007C00120C3FC4
:100855007D107F29120CB3E4FD7FBD120CB3D2A825
:030865007F0122EE
:10055500754C01E4F54BC3E54B94327480948040AF
:10056500030205FC120B96EF7005F54C0205FCE540
:100575004B90040E93FD7FC1120CB3E4FD7FC312B3
:100585000CB37D047F08120CB37F017E007D007CD7
:1005950000120C3FE4FD7F08120CB37F017E007D45
:1005A500007C00120C3FE4F54DC3E54D94147480B6
:1005B5009480502975F014E54BA42426F582E5F0C6
:1005C5003400F583E582254DF582E43583F583E432
:1005D50093FD60097F05120CB3054D80CCAD4D7FB1
:1005E500B9120CB37DFF7FB2120CB37D047F3712B5
:0905F5000CB3054B02055BAF4C91
:0105FE0022DA
:050006007FC5020CBEE5
:0B0CB300908100EFF0908000EDF02237
:0B0CBE00908100EFF0908000E0FF222A
:07001400021125800110001C
:100BF300759850758920AE11AF12AB07AA06E4F9B8
:100C0300F8FF7EE1FDFC120AD61204598F8B8F8DFB
:070C1300D28ED2ACD2AF2259
:0E0C7F00C2ACC2998F993099FDC299D2AC22B5
:0D0C8D00C2ACC298AF993098FDC298D2ACAD
:010C9A002237
:100C1A008B498A4A894BAB49AA4AA94B12044060BC
:100C2A0013054BE54B7002054A14F9120440FF12F2
:050C3A000C7F80E222A6
:03002300020A3A94
:100A3A00C0E0C0D075D008309845C298741325100C
:100A4A00F8A6990510C3E510943174809480400388
:100A5A00751000C3E51094037480948040217413C8
:100A6A002510F8E664F8701774122510F8E664F891
:100A7A00700D74112510F8E664F8700375C760D01C
:040A8A00D0D0E032B6
:030000000208FAF9
:0C08FA00787FE4F6D8FD75815B020941AF
:10044000BB010689828A83E0225002E722BBFE02BA
:09045000E32289828A83E49322ED
:100AD600C2D5E830E70FB2D5E4C39BFBE49AFAE44B
:100AE60099F9E498F8EC30E717B2D5120B0C12041A
:100AF600C3E4C39BFBE49AFAE499F9E498F880030B
:100B06001204C330D50DE4C39FFFE49EFEE49DFDB1
:040B1600E49CFC223D
:0E045900C3E49FFFE49EFEE49DFDE49CFC22B4
:100467007401FF3395E0FEFDFC080808E6CF2FF680
:1004770018E6CE3EF618E6CD3DF618E6CC3CF62259
:1009060002073AE493A3F8E493A34003F68001F2C6
:1009160008DFF48029E493A3F85407240CC8C333F2
:10092600C4540F4420C8834004F456800146F6DFC1
:10093600E4800B010204081020408090000EE47E43
:10094600019360BCA3FF543F30E509541FFEE493B6
:10095600A360010ECF54C025E060A840B8E493A37D
:10096600FAE493A3F8E493A3C8C582C8CAC583CAA8
:10097600F0A3C8C582C8CAC583CADFE9DEE780BE60
:01001B0000E4
:1004870075F008758200EF2FFFEE33FECD33CDCC2C
:1004970033CCC58233C5829BED9AEC99E5829840AF
:1004A7000CF582EE9BFEED9AFDEC99FC0FD5F0D68C
:1004B700E4CEFBE4CDFAE4CCF9A88222B800C1B9B6
:1004C7000059BA002DEC8BF084CFCECDFCE5F0CBF4
:1004D700F97818EF2FFFEE33FEED33FDEC33FCEB2D
:1004E70033FB10D703994004EB99FB0FD8E5E4F9E8
:1004F700FA227818EF2FFFEE33FEED33FDEC33FCD5
:10050700C933C910D7059BE99A4007EC9BFCE99AC8
:10051700F90FD8E0E4C9FAE4CCFB2275F010EF2F0D
:10052700FFEE33FEED33FDCC33CCC833C810D7070D
:100537009BEC9AE899400AED9BFDEC9AFCE899F848
:0E0547000FD5F0DAE4CDFBE4CCFAE4C8F922DB
:00000001FF
