:100939003C473ECED2CAC7D0A1B2BCA3ACBADCB840
:10094900DFD0CBCEAAC4FAB7FECEF1003C473EC7F2
:10095900B0B7BDB0DFC2EDCFDF003C473E003C473A
:100969003EC7B0B7BDD3D0D5CFB0ADCEEF003C4771
:100979003ED5D2D0A1B2BCD3D0CAB2C3B4CAC2C2C6
:10098900F00D0A003C473ED4DAB5C40D0A003C47D5
:100999003ECED2D4DA0D0A003C473ED0A1B2BCD437
:1009A900DAB5C40D0A003C473ECFD6D4DACAC7CF60
:0A09B900C2CEE7D2BBB5E30D0A0081
:06000E0001590001580039
:10058100E4F546F547F5487592FFF591C294C29599
:10059100C296C297120CA0120C04120B57120C3007
:1005A100E47859F67BFF7A097939120C57120CCA93
:1005B1008F477B007A007913120C577E007F007DF4
:1005C100007B007A007913120487E54724CE600F7F
:1005D100146014240270247BFF7A097955800E7B04
:1005E100FF7A09796380067BFF7A097967120C57D4
:1005F1007F207E4E7D007C00120C7C7859E61460D1
:10060100AC24F1601824DF60A4243170207859767D
:1006110001120A22EF709678597631809012000605
:10062100785BEFF6120ACBE47859F68080E47859CA
:04063100F60205AE1A
:100CA000B2C2120CD8B2C2120CD8B2C2120CD8B254
:0C0CB000C2120CD8B2C2120CD8B2C22280
:100C04007580FFE4F59075A0FF75B0FF75C0FF53C4
:100C14008E7F438901F58A758C28C28DD28CD2A926
:0C0C2400C2C3D289D2A8D2AF75C13D2254
:0A0CE50000007F057E49DEFEDFFC03
:010CEF0022E2
:080C7C008F538E528D518C50F4
:100C8400E4F554F555F556F557785074FF12046998
:0B0C9400EC4D4E4F6005120CE580EEA9
:010C9F002232
:0C0CD8007F117ED07D1BDDFEDEFCDFFA0C
:010CE40022ED
:03000300020B9855
:100B9800C0E0C0F0C083C082C0D075D000C000C023
:100BA80001C002C003C004C005C006C0071206DFAA
:100BB800D007D006D005D004D003D002D001D00091
:0B0BC800D0D0D082D083D0F0D0E0323B
:100ACB00EF24FE601924FE601F24F0602514602CB7
:100ADB0024147033D2977BFF7A0979778026C297DB
:100AEB007BFF7A09798D801CD2967BFF7A097997E7
:100AFB008012C2967BFF7A0979A18008D2957BFF81
:080B0B007A0979AF120C5722A0
:03000B00020D06DD
:0A0D0600758A00758C2875C13D3216
:1000260000000000000000000000000000000000CA
:10003600000000006E692068616F207869616F209A
:1000460062750000000000006E696E2068616F2016
:100056007869616F20627500000000007869616F41
:10006600206275207869616F2062750000000000CB
:100076007869616F206275000000000000000000D2
:10008600000000007869616E207A6169206A692043
:100096006469616E000000000000000000000000BE
:1000A600000000000000000000000000000000004A
:1000B600000000000000000000000000000000003A
:1000C600000000000000000000000000000000002A
:1000D600000000000000000000000000000000001A
:100406000000000000000000000102041415161789
:1004160018191A000000000000000000000000008B
:1004260000000000000000000000000000000000C6
:0A04360000000000000000000000BC
:100B5700D2B57F057E007D007C00120C7CC2B57F7C
:100B6700057E007D007C00120C7CD2B57F057E00DF
:100B77007D007C00120C7CC2A17F057E007D007C7D
:100B870000120C7CD2A17F057E007D007C00020C48
:010B97007CE1
:10077E007F06120CFB7D357F17120CF07F0A7E0070
:10078E007D007C00120C7C7F06120CFB7D037F89A2
:10079E00120CF07F057E007D007C00120C7C7D43E8
:1007AE007FCF120CF07F057E007D007C00120C7C4A
:1007BE007D027FCB120CF07D0A7F11120CF0E4FD4E
:1007CE007F1E120CF07D3F7F19120CF07D487F1BAF
:1007DE00120CF07D1F7F1D120CF07F0A7E007D0033
:1007EE007C00120C7C7D047FCD120CF07F057E0008
:1007FE007D007C00120C7CE4FD7FB9120CF07D4F65
:0C080E007FCF120CF07DFF7F6F020CF01A
:1009C30012077EE4FD7FBD120CF07D487F17120CE9
:1009D300F07F0A7E007D007C00120C7C7D807F3CD2
:1009E300120CF07D077F3E120CF07DFF7F38120C56
:1009F300F07D077F3A120CF0E4FD7F40120CF07D8E
:100A0300087F42120CF0E4FD7F44120CF07D087F56
:0F0A130046120CF07F017E007D007C00020C7CFF
:1006DF00E4F545C2A87F2B120CFB785AA607E4FD60
:1006EF007F29120CF0E4FD7F02120CF0785AE630ED
:1006FF00E4377FB2120CFBEF6421702D7FBF120C19
:10070F00FBEF643570237FBA120CFB8F457E00D34D
:10071F00EF9400748094804010D3EF94047480940D
:10072F0080500678597610800478597611E4FD7F51
:10073F002B120CF0E4FD7F1C120CF0E4FD7F29124C
:10074F000CF0E4FD7F02120CF0E4FD7F2B120CF095
:10075F00E4FD7FBA120CF0E4FD7FBC120CF07D01BA
:0E076F007F08120CF0E4FD7F08120CF0D2A8F7
:01077D002259
:100A2200E4F549F54AF549C3E54994057480948093
:100A3200504012001C7F327E007D007C00120C7C34
:100A4200120635EF700280117F0A7E007D007C0065
:100A5200120C7C12081AEF7010120B577F327E00B4
:100A62007D007C00120C7C8005754A0180040549DA
:040A720080B5AF4A52
:010A7600225D
:100BD300E4F54FF54EC3E54E940A74809480501E9D
:100BE3007FB2120CFBEF64217005754F01800F7FFC
:100BF3000A7E007D007C00120C7C054E80D7AF4F2F
:010C030022CE
:03001C000209C313
:10081A00C2A87D437F35120CF07D097F1C120CF0B3
:10082A007D207FBD120CF07D017F08120CF07F0144
:10083A007E007D007C00120C7CE4FD7F08120CF027
:10084A007F017E007D007C00120C7C120BD3EF70BE
:10085A0002FF227D0B7F1C120CF07DFF7FB2120C6F
:10086A00F07F017E007D007C00120C7C7D067F37C4
:10087A00120CF07F017E007D007C00120C7C7D064C
:10088A007F37120CF07F057E007D007C00120C7C05
:10089A007D107F29120CF0E4FD7FBD120CF0D2A866
:0308AA007F0122A9
:10063500754C01E4F54BC3E54B94327480948040CE
:10064500030206DC120BD3EF7005F54C0206DCE560
:100655004B90040E93FD7FC1120CF0E4FD7FC31295
:100665000CF07D047F08120CF07F017E007D007C7C
:1006750000120C7CE4FD7F08120CF07F017E007DEA
:10068500007C00120C7CE4F54DC3E54D9414748098
:100695009480502975F014E54BA42426F582E5F0E5
:1006A5003400F583E582254DF582E43583F583E451
:1006B50093FD60097F05120CF0054D80CCAD4D7F93
:1006C500B9120CF07DFF7FB2120CF07D047F37125A
:0906D5000CF0054B02063BAF4C92
:0106DE0022F9
:050006007FC5020CFBA8
:0B0CF000908100EFF0908000EDF022FA
:0B0CFB00908100EFF0908000E0FF22ED
:07001400021125800110001C
:100C3000759850758920AE11AF12AB07AA06E4F97A
:100C4000F8FF7EE1FDFC120B131204598F8B8F8D80
:070C5000D28ED2ACD2AF221C
:0E0CBC00C2ACC2998F993099FDC299D2AC2278
:0D0CCA00C2ACC298AF993098FDC298D2AC70
:010CD70022FA
:100C57008B498A4A894BAB49AA4AA94B120440607F
:100C670013054BE54B7002054A14F9120440FF12B5
:050C77000CBC80E2222C
:03002300020A7757
:100A7700C0E0C0D075D008309845C29874132510CF
:100A8700F8A6990510C3E51094317480948040034B
:100A9700751000C3E510940374809480402174138B
:100AA7002510F8E664F8701774122510F8E664F854
:100AB700700D74112510F8E664F8700375C760D0DF
:040AC700D0D0E03279
:030000000208AD46
:0C08AD00787FE4F6D8FD75815B0208F44A
:10044000BB010689828A83E0225002E722BBFE02BA
:09045000E32289828A83E49322ED
:100B1300C2D5E830E70FB2D5E4C39BFBE49AFAE40D
:100B230099F9E498F8EC30E717B2D5120B4912049F
:100B3300EFE4C39BFBE49AFAE499F9E498F88003A1
:100B43001204EF30D50DE4C39FFFE49EFEE49DFD48
:040B5300E49CFC2200
:0E045900C3E49FFFE49EFEE49DFDE49CFC22B4
:100467007401FF3395E0FEFDFC080808E6CF2FF680
:1004770018E6CE3EF618E6CD3DF618E6CC3CF62259
:10048700EF4E6012EF60010EEDBB010B89828A838C
:10049700F0A3DFFCDEFA2289F05007F709DFFCA999
:0C04A700F022BBFEFCF309DFFCA9F022F0
:1008B900020581E493A3F8E493A34003F68001F2CF
:1008C90008DFF48029E493A3F85407240CC8C33340
:1008D900C4540F4420C8834004F456800146F6DF0F
:1008E900E4800B010204081020408090000EE47E91
:1008F900019360BCA3FF543F30E509541FFEE49304
:10090900A360010ECF54C025E060A840B8E493A3CA
:10091900FAE493A3F8E493A3C8C582C8CAC583CAF5
:10092900F0A3C8C582C8CAC583CADFE9DEE780BEAD
:01001B0000E4
:1004B30075F008758200EF2FFFEE33FECD33CDCC00
:1004C30033CCC58233C5829BED9AEC99E582984083
:1004D3000CF582EE9BFEED9AFDEC99FC0FD5F0D660
:1004E300E4CEFBE4CDFAE4CCF9A88222B800C1B98A
:1004F3000059BA002DEC8BF084CFCECDFCE5F0CBC8
:10050300F97818EF2FFFEE33FEED33FDEC33FCEB00
:1005130033FB10D703994004EB99FB0FD8E5E4F9BB
:10052300FA227818EF2FFFEE33FEED33FDEC33FCA8
:10053300C933C910D7059BE99A4007EC9BFCE99A9C
:10054300F90FD8E0E4C9FAE4CCFB2275F010EF2FE1
:10055300FFEE33FEED33FDCC33CCC833C810D707E1
:100563009BEC9AE899400AED9BFDEC9AFCE899F81C
:0E0573000FD5F0DAE4CDFBE4CCFAE4C8F922AF
:00000001FF
