:1008E7003C473ECED2CAC7D0A1B2BCA3ACBADCB893
:1008F700DFD0CBCEAAC4FAB7FECEF1003C473EC745
:10090700B0B7BDB0DFC2EDCFDF003C473E003C478C
:100917003EC7B0B7BDD3D0D5CFB0ADCEEF003C47C3
:100927003ED5D2D0A1B2BCD3D0CAB2C3B4CAC2C218
:10093700F00D0A003C473ED4DAB5C40D0A003C4727
:100947003ECED2D4DA0D0A003C473ED0A1B2BCD489
:10095700DAB5C40D0A003C473ECFD6D4DACAC7CFB2
:0A096700C2CEE7D2BBB5E30D0A00D3
:06000E000158000157003B
:1007CD00E4F546F5477592FFF591C294C295C29630
:1007DD00C297120C4E120BB2120B05120BDEE478FF
:1007ED0058F67BFF7A0879E7120C05120C788F46C4
:1007FD00E54624CE600F146014240270197BFF7A35
:10080D00097903800E7BFF7A09791180067BFF7AC7
:10081D00097915120C057858E61460CF24F160188B
:10082D0024DF60C724317020785876011209D0EF8B
:10083D0070B97858763180B3120006785AEFF612F7
:0E084D000A79E47858F680A3E47858F6809D86
:100C4E00B2C2120C86B2C2120C86B2C2120C86B29C
:0C0C5E00C2120C86B2C2120C86B2C22276
:100BB2007580FFE4F59075A0FF75B0FF75C0FF5317
:100BC2008E7F438901F58A758C28C28DD28CD2A979
:0C0BD200C2C3D289D2A8D2AF75C13D22A7
:0A0C930000007F057E49DEFEDFFC55
:010C9D002234
:080C2A008F528E518D508C4F4A
:100C3200E4F553F554F555F556784F74FF120469EF
:0B0C4200EC4D4E4F6005120C9380EE4D
:010C4D002284
:0C0C86007F117ED07D1BDDFEDEFCDFFA5E
:010C9200223F
:03000300020B46A7
:100B4600C0E0C0F0C083C082C0D075D000C000C075
:100B560001C002C003C004C005C006C0071205FFDD
:100B6600D007D006D005D004D003D002D001D000E3
:0B0B7600D0D0D082D083D0F0D0E0328D
:100A7900EF24FE601924FE601F24F0602514602C09
:100A890024147033D2977BFF7A0979258026C2977F
:100A99007BFF7A09793B801CD2967BFF7A097945DD
:100AA9008012C2967BFF7A09794F8008D2957BFF25
:080AB9007A09795D120C052297
:03000B00020CB430
:0A0CB400758A00758C2875C13D3269
:1000260000000000000000000000000000000000CA
:10003600000000006E692068616F207869616F209A
:1000460062750000000000006E696E2068616F2016
:100056007869616F20627500000000007869616F41
:10006600206275207869616F2062750000000000CB
:100076007869616F206275000000000000000000D2
:10008600000000007869616E207A6169206A692043
:100096006469616E000000000000000000000000BE
:1000A600000000000000000000000000000000004A
:1000B600000000000000000000000000000000003A
:1000C600000000000000000000000000000000002A
:1000D600000000000000000000000000000000001A
:100406000000000000000000000102041415161789
:1004160018191A000000000000000000000000008B
:1004260000000000000000000000000000000000C6
:0A04360000000000000000000000BC
:100B0500D2B57F057E007D007C00120C2AC2B57F20
:100B1500057E007D007C00120C2AD2B57F057E0083
:100B25007D007C00120C2AC2A17F057E007D007C21
:100B350000120C2AD2A17F057E007D007C00020CEC
:010B45002A85
:10069E007F06120CA97D357F17120C9E7F0A7E00F5
:1006AE007D007C00120C2A7F06120CA97D037F8927
:1006BE00120C9E7F057E007D007C00120C2A7D436D
:1006CE007FCF120C9E7F057E007D007C00120C2ACF
:1006DE007D027FCB120C9E7D0A7F11120C9EE4FDD3
:1006EE007F1E120C9E7D3F7F19120C9E7D487F1B34
:1006FE00120C9E7D1F7F1D120C9E7F0A7E007D00B8
:10070E007C00120C2A7D047FCD120C9E7F057E008C
:10071E007D007C00120C2AE4FD7FB9120C9E7D4FE9
:0C072E007FCF120C9E7DFF7F6F020C9E9F
:1009710012069EE4FD7FBD120C9E7D487F17120C6E
:100981009E7F0A7E007D007C00120C2A7D807F3CC8
:10099100120C9E7D077F3E120C9E7DFF7F38120C4C
:1009A1009E7D077F3A120C9EE4FD7F40120C9E7DD6
:1009B100087F42120C9EE4FD7F44120C9E7D087F4D
:0F09C10046120C9E7F017E007D007C00020C2AF6
:1005FF00E4F545C2A87F2B120CA97859A607E4FD94
:10060F007F29120C9EE4FD7F02120C9E7859E63072
:10061F00E4377FB2120CA9EF6421702D7FBF120C4B
:10062F00A9EF643570237FBA120CA98F457E00D3D2
:10063F00EF9400748094804010D3EF9404748094EE
:10064F0080500678587610800478587611E4FD7F34
:10065F002B120C9EE4FD7F1C120C9EE4FD7F2912D1
:10066F000C9EE4FD7F02120C9EE4FD7F2B120C9E6C
:10067F00E4FD7FBA120C9EE4FD7FBC120C9E7D013F
:0E068F007F08120C9EE4FD7F08120C9ED2A87C
:01069D00223A
:1009D000E4F548F549F548C3E548940574809480EA
:1009E000504012001C7F327E007D007C00120C2AD9
:1009F000120555EF700280117F0A7E007D007C0099
:100A0000120C2A12073AEF7010120B057F327E008B
:100A10007D007C00120C2A80057549018004054880
:040A200080B5AF49A5
:010A240022AF
:100B8100E4F54EF54DC3E54D940A74809480501EF2
:100B91007FB2120CA9EF64217005754E01800F7FA1
:100BA1000A7E007D007C00120C2A054D80D7AF4ED5
:010BB1002221
:03001C0002097165
:10073A00C2A87D437F35120C9E7D097F1C120C9E38
:10074A007D207FBD120C9E7D017F08120C9E7F01C9
:10075A007E007D007C00120C2AE4FD7F08120C9EAC
:10076A007F017E007D007C00120C2A120B81EF7043
:10077A0002FF227D0B7F1C120C9E7DFF7FB2120CA2
:10078A009E7F017E007D007C00120C2A7D067F3749
:10079A00120C9E7F017E007D007C00120C2A7D06D1
:1007AA007F37120C9E7F057E007D007C00120C2A8A
:1007BA007D107F29120C9EE4FD7FBD120C9ED2A8EB
:0307CA007F01228A
:10055500754B01E4F54AC3E54A94327480948040B2
:10056500030205FC120B81EF7005F54B0205FCE556
:100575004A90040E93FD7FC1120C9EE4FD7FC312C9
:100585000C9E7D047F08120C9E7F017E007D007C01
:1005950000120C2AE4FD7F08120C9E7F017E007D6F
:1005A500007C00120C2AE4F54CC3E54C94147480CD
:1005B5009480502975F014E54AA42426F582E5F0C7
:1005C5003400F583E582254CF582E43583F583E433
:1005D50093FD60097F05120C9E054C80CCAD4C7FC8
:1005E500B9120C9E7DFF7FB2120C9E7D047F3712DF
:0905F5000C9E054A02055BAF4BA8
:0105FE0022DA
:050006007FC5020CA9FA
:0B0C9E00908100EFF0908000EDF0224C
:0B0CA900908100EFF0908000E0FF223F
:07001400021125800110001C
:100BDE00759850758920AE11AF12AB07AA06E4F9CD
:100BEE00F8FF7EE1FDFC120AC11204598F8B8F8D26
:070BFE00D28ED2ACD2AF226F
:0E0C6A00C2ACC2998F993099FDC299D2AC22CA
:0D0C7800C2ACC298AF993098FDC298D2ACC2
:010C8500224C
:100C05008B488A49894AAB48AA49A94A12044060D7
:100C150013054AE54A7002054914F9120440FF120A
:050C25000C6A80E222D0
:03002300020A25A9
:100A2500C0E0C0D075D008309845C2987413251021
:100A3500F8A6990510C3E51094317480948040039D
:100A4500751000C3E51094037480948040217413DD
:100A55002510F8E664F8701774122510F8E664F8A6
:100A6500700D74112510F8E664F8700375C760D031
:040A7500D0D0E032CB
:0300000002085B98
:0C085B00787FE4F6D8FD75815A0208A2EF
:10044000BB010689828A83E0225002E722BBFE02BA
:09045000E32289828A83E49322ED
:100AC100C2D5E830E70FB2D5E4C39BFBE49AFAE460
:100AD10099F9E498F8EC30E717B2D5120AF7120445
:100AE100C3E4C39BFBE49AFAE499F9E498F8800320
:100AF1001204C330D50DE4C39FFFE49EFEE49DFDC7
:040B0100E49CFC2252
:0E045900C3E49FFFE49EFEE49DFDE49CFC22B4
:100467007401FF3395E0FEFDFC080808E6CF2FF680
:1004770018E6CE3EF618E6CD3DF618E6CC3CF62259
:100867000207CDE493A3F8E493A34003F68001F2D3
:1008770008DFF48029E493A3F85407240CC8C33392
:10088700C4540F4420C8834004F456800146F6DF61
:10089700E4800B010204081020408090000EE47EE3
:1008A700019360BCA3FF543F30E509541FFEE49356
:1008B700A360010ECF54C025E060A840B8E493A31D
:1008C700FAE493A3F8E493A3C8C582C8CAC583CA48
:1008D700F0A3C8C582C8CAC583CADFE9DEE780BE00
:01001B0000E4
:1004870075F008758200EF2FFFEE33FECD33CDCC2C
:1004970033CCC58233C5829BED9AEC99E5829840AF
:1004A7000CF582EE9BFEED9AFDEC99FC0FD5F0D68C
:1004B700E4CEFBE4CDFAE4CCF9A88222B800C1B9B6
:1004C7000059BA002DEC8BF084CFCECDFCE5F0CBF4
:1004D700F97818EF2FFFEE33FEED33FDEC33FCEB2D
:1004E70033FB10D703994004EB99FB0FD8E5E4F9E8
:1004F700FA227818EF2FFFEE33FEED33FDEC33FCD5
:10050700C933C910D7059BE99A4007EC9BFCE99AC8
:10051700F90FD8E0E4C9FAE4CCFB2275F010EF2F0D
:10052700FFEE33FEED33FDCC33CCC833C810D7070D
:100537009BEC9AE899400AED9BFDEC9AFCE899F848
:0E0547000FD5F0DAE4CDFBE4CCFAE4C8F922DB
:00000001FF
