:1009E4003C473ECED2CAC7D0A1B2BCA3ACBADCB895
:1009F400DFD0CBCEAAC4FAB7FECEF1003C473EC747
:100A0400B0B7BDB0DFC2EDCFDF003C473EC7B0B7E3
:100A1400BDC2A5CCDD003C473EC7B0B7BDD3D0D5E1
:100A2400CFB0ADCEEF003C473ED5D2D0A1B2BCD3BF
:100A3400D0CAB2C3B4CAC2C2F00D0A003C473ED405
:100A4400DAB5C40D0A003C473ECED2D4DA0D0A0012
:100A54003C473ED0A1B2BCD4DAB5C40D0A003C4731
:100A64003ECFD6D4DACAC7CFC2CEE7D2BBB5E30DE8
:020A74000A0076
:100DEB00017200015B0014460000000000000000CF
:0F0DFB00000000000000000000000000015A642A
:10067700E4F560F561F5627592FFF591C294C29554
:10068700C296C297120E85120DBF120D12120E15C9
:10069700E47872F67BFF7A0979E4120E3C7414252C
:1006A70010F8E624CE602D146050240270737E008B
:1006B7007F147D007B007A00794612057D7BFF7AE7
:1006C7000A790012000E78467C007D007BFF7A0ACB
:1006D7007900804A7E007F147D007B007A0079468E
:1006E70012057D7BFF7A0A790E12000E78467C0090
:1006F7007D007BFF7A0A790E80247E007F147D00BF
:100707007B007A00794612057D7BFF7A0A791A12F7
:10071700000E78467C007D007BFF7A0A791A120565
:10072700107872E61470030206A424F1601F24DF18
:1007370070030206A42431702578727601120C31F9
:10074700EF60030206A4787276310206A41200064F
:100757007874EFF6120C86E47872F60206A4E47851
:0507670072F60206A479
:100E8500B2C2120EAFB2C2120EAFB2C2120EAFB2E2
:0C0E9500C2120EAFB2C2120EAFB2C222E7
:100DBF007580FFE4F59075A0FF75B0FF75C0FF5308
:100DCF008E7F438901F58A758C28C28DD28CD2A96A
:0C0DDF00C2C3D289D2A8D2AF75C13D2298
:0A0EBC0000007F057E49DEFEDFFC2A
:010EC6002209
:080E61008F6D8E6C8D6B8C6AA5
:100E6900E4F56EF56FF570F571786A74FF12055F38
:0B0E7900EC4D4E4F6005120EBC80EEE9
:010E8400224B
:0C0EAF007F117ED07D1BDDFEDEFCDFFA33
:010EBB002214
:03000300020D5398
:100D5300C0E0C0F0C083C082C0D075D000C000C066
:100D630001C002C003C004C005C006C007120816B4
:100D7300D007D006D005D004D003D002D001D000D4
:0B0D8300D0D0D082D083D0F0D0E0327E
:100C8600EF24FE601924FE601F24F0602514602CFA
:100C960024147033D2977BFF7A0A792A8026C2976A
:100CA6007BFF7A0A7940801CD2967BFF7A0A794AC2
:100CB6008012C2967BFF7A0A79548008D2957BFF10
:080CC6007A0A7962120E3C2249
:03000B00020B7174
:100B7100C0E0C0F0C083C082C0D075D000C000C04A
:100B810001C002C003C004C005C006C007758A00C9
:100B9100758C2875C13D155AE55A701AFB7A007992
:100BA10046120E3C7E007F147D007B007A00794660
:100BB10012057D755A64D007D006D005D004D00344
:100BC100D002D001D000D0D0D082D083D0F0D0E0FC
:010BD10032F1
:1000260000000000000000000000000000000000CA
:10003600000000006E692068616F207869616F209A
:1000460062750000000000006E696E2068616F2016
:100056007869616F20627500000000007869616F41
:10006600206275207869616F2062750000000000CB
:100076007869616F206275000000000000000000D2
:10008600000000007869616E207A6169206A692043
:100096006469616E000000000000000000000000BE
:1000A600000000000000000000000000000000004A
:1000B600000000000000000000000000000000003A
:1000C600000000000000000000000000000000002A
:1000D600000000000000000000000000000000001A
:100406000000000000000000000102041415161789
:1004160018191A000000000000000000000000008B
:1004260000000000000000000000000000000000C6
:0A04360000000000000000000000BC
:100D1200D2B57F057E007D007C00120E61C2B57FD8
:100D2200057E007D007C00120E61D2B57F057E003B
:100D32007D007C00120E61C2A17F057E007D007CD9
:100D420000120E61D2A17F057E007D007C00020EA2
:010D5200613F
:1008B5007F06120ED27D357F17120EC77F0A7E0086
:1008C5007D007C00120E617F06120ED27D037F89AA
:1008D500120EC77F057E007D007C00120E617D43F0
:1008E5007FCF120EC77F057E007D007C00120E6152
:1008F5007D027FCB120EC77D0A7F11120EC7E4FD64
:100905007F1E120EC77D3F7F19120EC77D487F1BC4
:10091500120EC77D1F7F1D120EC77F0A7E007D0048
:100925007C00120E617D047FCD120EC77F057E000F
:100935007D007C00120E61E4FD7FB9120EC77D4F6C
:0C0945007FCF120EC77DFF7F6F020EC730
:100BD2001208B5E4FD7FBD120EC77D487F17120EC5
:100BE200C77F0A7E007D007C00120E617D807F3C03
:100BF200120EC77D077F3E120EC77DFF7F38120E91
:100C0200C77D077F3A120EC7E4FD7F40120EC77DF3
:100C1200087F42120EC7E4FD7F44120EC77D087F93
:0F0C220046120EC77F017E007D007C00020E612E
:10081600E4F55CC2A87F2B120ED27873A607E4FD1E
:100826007F29120EC7E4FD7F02120EC77873E630E9
:10083600E4377FB2120ED2EF6421702D7FBF120E05
:10084600D2EF643570237FBA120ED28F5C7E00D34E
:10085600EF9400748094804010D3EF9404748094D5
:1008660080500678727610800478727611E4FD7FE7
:100876002B120EC7E4FD7F1C120EC7E4FD7F291262
:100886000EC7E4FD7F02120EC7E4FD7F2B120EC7D2
:10089600E4FD7FBA120EC7E4FD7FBC120EC77D01D0
:0E08A6007F08120EC7E4FD7F08120EC7D2A80D
:0108B4002221
:100C3100E4F563F564F563C3E5639405748094801A
:100C41005040120EDD7F327E007D007C00120E616D
:100C510012076CEF700280117F0A7E007D007C001C
:100C6100120E61120951EF7010120D127F327E00C7
:100C71007D007C00120E61800575640180040563AE
:040C810080B5AF6427
:010C8500224C
:100D8E00E4F569F568C3E568940A74809480501E92
:100D9E007FB2120ED2EF64217005756901800F7F4C
:100DAE000A7E007D007C00120E61056880D7AF6957
:010DBE002212
:030EDD00020BD233
:10095100C2A87D437F35120EC77D097F1C120EC7C9
:100961007D207FBD120EC77D017F08120EC77F015A
:100971007E007D007C00120E61E4FD7F08120EC72F
:100981007F017E007D007C00120E61120D8EEF70E2
:1009910002FF227D0B7F1C120EC77DFF7FB2120E5C
:1009A100C77F017E007D007C00120E617D067F37CE
:1009B100120EC77F017E007D007C00120E617D0654
:1009C1007F37120EC77F057E007D007C00120E610D
:1009D1007D107F29120EC7E4FD7FBD120EC7D2A87C
:0309E1007F012271
:10076C00756601E4F565C3E5659432748094804048
:10077C0003020813120D8EEF7005F566020813E5DF
:10078C006590040E93FD7FC1120EC7E4FD7FC3126A
:10079C000EC77D047F08120EC77F017E007D007C92
:1007AC0000120E61E4FD7F08120EC77F017E007DF2
:1007BC00007C00120E61E4F567C3E5679414748045
:1007CC009480502975F014E565A42426F582E5F093
:1007DC003400F583E5822567F582E43583F583E4FF
:1007EC0093FD60097F05120EC7056780CCAD677F4E
:1007FC00B9120EC77DFF7FB2120EC77D047F371270
:09080C000EC70565020772AF6614
:0108150022C0
:050006007FC5020ED2CF
:0B0EC700908100EFF0908000EDF02221
:0B0ED200908100EFF0908000E0FF2214
:0A0E0A000211258001100001130001
:100E1500759850758920AE11AF12AB07AA06E4F993
:100E2500F8FF7EE1FDFC120CCE12054F8F8B8F8DE6
:070E3500D28ED2ACD2AF2235
:0E0EA100C2ACC2998F993099FDC299D2AC2291
:100E3C008B638A648965AB63AA64A9651205366005
:100E4C00130565E5657002056414F9120536FF1289
:050E5C000EA180E2225E
:03002300020B02CB
:100B0200C0E0C0F0C083C082C0D075D00830985415
:100B1200C29874142510F8A6990510C3E5109431F3
:100B22007480948040127E007F327D007B007A00C8
:100B3200791412057D751000C3E510940374809436
:100B420080402174142510F8E664F8701774132598
:100B520010F8E664F8700D74122510F8E664F87067
:0F0B62000375C760D0D0D082D083D0F0D0E032FE
:03000000020A767B
:0C0A7600787FE4F6D8FD758174020ABD9B
:10044000E709F608DFFA8046E709F208DFFA803E9E
:1004500088828C83E709F0A3DFFA8032E309F6088B
:10046000DFFA8078E309F208DFFA807088828C83F3
:10047000E309F0A3DFFA806489828A83E0A3F608A7
:10048000DFFA805889828A83E0A3F208DFFA804C81
:1004900080D280FA80C680D4806980F28033801058
:1004A00080A680EA809A80A880DA80E280CA8033C1
:1004B00089828A83ECFAE493A3C8C582C8CCC58339
:1004C000CCF0A3C8C582C8CCC583CCDFE9DEE78009
:1004D0000D89828A83E493A3F608DFF9ECFAA9F088
:1004E000EDFB2289828A83ECFAE0A3C8C582C8CCDE
:1004F000C583CCF0A3C8C582C8CCC583CCDFEADEF7
:10050000E880DB89828A83E493A3F208DFF980CC58
:1005100088F0EF60010E4E60C388F0ED2402B40451
:100520000050B9F582EB2402B4040050AF232345F8
:0605300082239004907389
:10053600BB010689828A83E0225002E722BBFE02C3
:09054600E32289828A83E49322F6
:100CCE00C2D5E830E70FB2D5E4C39BFBE49AFAE451
:100CDE0099F9E498F8EC30E717B2D5120D04120525
:100CEE00E5E4C39BFBE49AFAE499F9E498F88003EF
:100CFE001205E530D50DE4C39FFFE49EFEE49DFD95
:040D0E00E49CFC2243
:0E054F00C3E49FFFE49EFEE49DFDE49CFC22BD
:10055D007401FF3395E0FEFDFC080808E6CF2FF689
:10056D0018E6CE3EF618E6CD3DF618E6CC3CF62262
:10000E00E4FFFE120536600C0FEF70010E09E97069
:05001E00F20A80EF2250
:10057D00EF4E6012EF60010EEDBB010B89828A8395
:10058D00F0A3DFFCDEFA2289F05007F709DFFCA9A2
:0C059D00F022BBFEFCF309DFFCA9F022F9
:100A8200020677E493A3F8E493A34003F68001F20D
:100A920008DFF48029E493A3F85407240CC8C33375
:100AA200C4540F4420C8834004F456800146F6DF44
:100AB200E4800B0102040810204080900DEBE47EDC
:100AC200019360BCA3FF543F30E509541FFEE49339
:100AD200A360010ECF54C025E060A840B8E493A300
:100AE200FAE493A3F8E493A3C8C582C8CAC583CA2B
:100AF200F0A3C8C582C8CAC583CADFE9DEE780BEE3
:010E140000DD
:1005A90075F008758200EF2FFFEE33FECD33CDCC09
:1005B90033CCC58233C5829BED9AEC99E58298408C
:1005C9000CF582EE9BFEED9AFDEC99FC0FD5F0D669
:1005D900E4CEFBE4CDFAE4CCF9A88222B800C1B993
:1005E9000059BA002DEC8BF084CFCECDFCE5F0CBD1
:1005F900F97818EF2FFFEE33FEED33FDEC33FCEB0A
:1006090033FB10D703994004EB99FB0FD8E5E4F9C4
:10061900FA227818EF2FFFEE33FEED33FDEC33FCB1
:10062900C933C910D7059BE99A4007EC9BFCE99AA5
:10063900F90FD8E0E4C9FAE4CCFB2275F010EF2FEA
:10064900FFEE33FEED33FDCC33CCC833C810D707EA
:100659009BEC9AE899400AED9BFDEC9AFCE899F825
:0E0669000FD5F0DAE4CDFBE4CCFAE4C8F922B8
:00000001FF
